{
	"IoTDataStorage.sol": {
		"IoTDataStorage": {
			"abi": [
				{
					"inputs": [],
					"stateMutability": "nonpayable",
					"type": "constructor"
				},
				{
					"anonymous": false,
					"inputs": [
						{
							"indexed": false,
							"internalType": "uint256",
							"name": "timestamp",
							"type": "uint256"
						},
						{
							"indexed": false,
							"internalType": "string",
							"name": "packageId",
							"type": "string"
						},
						{
							"indexed": false,
							"internalType": "string",
							"name": "category",
							"type": "string"
						},
						{
							"indexed": false,
							"internalType": "string",
							"name": "value",
							"type": "string"
						}
					],
					"name": "DataStored",
					"type": "event"
				},
				{
					"inputs": [],
					"name": "MAX_ENTRIES",
					"outputs": [
						{
							"internalType": "uint256",
							"name": "",
							"type": "uint256"
						}
					],
					"stateMutability": "view",
					"type": "function"
				},
				{
					"inputs": [
						{
							"internalType": "uint256",
							"name": "",
							"type": "uint256"
						}
					],
					"name": "dataRecords",
					"outputs": [
						{
							"internalType": "uint256",
							"name": "timestamp",
							"type": "uint256"
						},
						{
							"internalType": "string",
							"name": "packageId",
							"type": "string"
						},
						{
							"internalType": "string",
							"name": "category",
							"type": "string"
						},
						{
							"internalType": "string",
							"name": "value",
							"type": "string"
						}
					],
					"stateMutability": "view",
					"type": "function"
				},
				{
					"inputs": [
						{
							"internalType": "uint256",
							"name": "index",
							"type": "uint256"
						}
					],
					"name": "getData",
					"outputs": [
						{
							"internalType": "uint256",
							"name": "timestamp",
							"type": "uint256"
						},
						{
							"internalType": "string",
							"name": "packageId",
							"type": "string"
						},
						{
							"internalType": "string",
							"name": "category",
							"type": "string"
						},
						{
							"internalType": "string",
							"name": "value",
							"type": "string"
						}
					],
					"stateMutability": "view",
					"type": "function"
				},
				{
					"inputs": [],
					"name": "getDataCount",
					"outputs": [
						{
							"internalType": "uint256",
							"name": "",
							"type": "uint256"
						}
					],
					"stateMutability": "view",
					"type": "function"
				},
				{
					"inputs": [],
					"name": "owner",
					"outputs": [
						{
							"internalType": "address",
							"name": "",
							"type": "address"
						}
					],
					"stateMutability": "view",
					"type": "function"
				},
				{
					"inputs": [
						{
							"internalType": "string",
							"name": "packageId",
							"type": "string"
						},
						{
							"internalType": "string",
							"name": "category",
							"type": "string"
						},
						{
							"internalType": "string",
							"name": "value",
							"type": "string"
						}
					],
					"name": "storeData",
					"outputs": [],
					"stateMutability": "nonpayable",
					"type": "function"
				}
			],
			"devdoc": {
				"kind": "dev",
				"methods": {},
				"version": 1
			},
			"evm": {
				"assembly": "    /* \"IoTDataStorage.sol\":60:1671  contract IoTDataStorage {\r... */\n  mstore(0x40, 0x80)\n    /* \"IoTDataStorage.sol\":607:658  constructor() {\r... */\n  callvalue\n  dup1\n  iszero\n  tag_1\n  jumpi\n  0x00\n  dup1\n  revert\ntag_1:\n  pop\n    /* \"IoTDataStorage.sol\":640:650  msg.sender */\n  caller\n    /* \"IoTDataStorage.sol\":632:637  owner */\n  0x01\n  0x00\n    /* \"IoTDataStorage.sol\":632:650  owner = msg.sender */\n  0x0100\n  exp\n  dup2\n  sload\n  dup2\n  0xffffffffffffffffffffffffffffffffffffffff\n  mul\n  not\n  and\n  swap1\n  dup4\n  0xffffffffffffffffffffffffffffffffffffffff\n  and\n  mul\n  or\n  swap1\n  sstore\n  pop\n    /* \"IoTDataStorage.sol\":60:1671  contract IoTDataStorage {\r... */\n  dataSize(sub_0)\n  dup1\n  dataOffset(sub_0)\n  0x00\n  codecopy\n  0x00\n  return\nstop\n\nsub_0: assembly {\n        /* \"IoTDataStorage.sol\":60:1671  contract IoTDataStorage {\r... */\n      mstore(0x40, 0x80)\n      callvalue\n      dup1\n      iszero\n      tag_1\n      jumpi\n      0x00\n      dup1\n      revert\n    tag_1:\n      pop\n      jumpi(tag_2, lt(calldatasize, 0x04))\n      shr(0xe0, calldataload(0x00))\n      dup1\n      0x0178fe3f\n      eq\n      tag_3\n      jumpi\n      dup1\n      0x7355a424\n      eq\n      tag_4\n      jumpi\n      dup1\n      0x7d4cb964\n      eq\n      tag_5\n      jumpi\n      dup1\n      0x8da5cb5b\n      eq\n      tag_6\n      jumpi\n      dup1\n      0xc8592e0b\n      eq\n      tag_7\n      jumpi\n      dup1\n      0xd4001ef2\n      eq\n      tag_8\n      jumpi\n    tag_2:\n      0x00\n      dup1\n      revert\n        /* \"IoTDataStorage.sol\":1274:1668  function getData(uint256 index) public view returns (\r... */\n    tag_3:\n      tag_9\n      0x04\n      dup1\n      calldatasize\n      sub\n      dup2\n      add\n      swap1\n      tag_10\n      swap2\n      swap1\n      tag_11\n      jump\t// in\n    tag_10:\n      tag_12\n      jump\t// in\n    tag_9:\n      mload(0x40)\n      tag_13\n      swap5\n      swap4\n      swap3\n      swap2\n      swap1\n      tag_14\n      jump\t// in\n    tag_13:\n      mload(0x40)\n      dup1\n      swap2\n      sub\n      swap1\n      return\n        /* \"IoTDataStorage.sol\":1168:1266  function getDataCount() public view returns (uint256) {\r... */\n    tag_4:\n      tag_15\n      tag_16\n      jump\t// in\n    tag_15:\n      mload(0x40)\n      tag_17\n      swap2\n      swap1\n      tag_18\n      jump\t// in\n    tag_17:\n      mload(0x40)\n      dup1\n      swap2\n      sub\n      swap1\n      return\n        /* \"IoTDataStorage.sol\":296:337  uint256 public constant MAX_ENTRIES = 100 */\n    tag_5:\n      tag_19\n      tag_20\n      jump\t// in\n    tag_19:\n      mload(0x40)\n      tag_21\n      swap2\n      swap1\n      tag_18\n      jump\t// in\n    tag_21:\n      mload(0x40)\n      dup1\n      swap2\n      sub\n      swap1\n      return\n        /* \"IoTDataStorage.sol\":379:399  address public owner */\n    tag_6:\n      tag_22\n      tag_23\n      jump\t// in\n    tag_22:\n      mload(0x40)\n      tag_24\n      swap2\n      swap1\n      tag_25\n      jump\t// in\n    tag_24:\n      mload(0x40)\n      dup1\n      swap2\n      sub\n      swap1\n      return\n        /* \"IoTDataStorage.sol\":344:372  IoTData[] public dataRecords */\n    tag_7:\n      tag_26\n      0x04\n      dup1\n      calldatasize\n      sub\n      dup2\n      add\n      swap1\n      tag_27\n      swap2\n      swap1\n      tag_11\n      jump\t// in\n    tag_27:\n      tag_28\n      jump\t// in\n    tag_26:\n      mload(0x40)\n      tag_29\n      swap5\n      swap4\n      swap3\n      swap2\n      swap1\n      tag_14\n      jump\t// in\n    tag_29:\n      mload(0x40)\n      dup1\n      swap2\n      sub\n      swap1\n      return\n        /* \"IoTDataStorage.sol\":666:1160  function storeData(string memory packageId, string memory category, string memory value) public onlyOwner {\r... */\n    tag_8:\n      tag_30\n      0x04\n      dup1\n      calldatasize\n      sub\n      dup2\n      add\n      swap1\n      tag_31\n      swap2\n      swap1\n      tag_32\n      jump\t// in\n    tag_31:\n      tag_33\n      jump\t// in\n    tag_30:\n      stop\n        /* \"IoTDataStorage.sol\":1274:1668  function getData(uint256 index) public view returns (\r... */\n    tag_12:\n        /* \"IoTDataStorage.sol\":1337:1354  uint256 timestamp */\n      0x00\n        /* \"IoTDataStorage.sol\":1365:1388  string memory packageId */\n      0x60\n        /* \"IoTDataStorage.sol\":1399:1421  string memory category */\n      dup1\n        /* \"IoTDataStorage.sol\":1432:1451  string memory value */\n      0x60\n        /* \"IoTDataStorage.sol\":1486:1497  dataRecords */\n      0x00\n        /* \"IoTDataStorage.sol\":1486:1504  dataRecords.length */\n      dup1\n      sload\n      swap1\n      pop\n        /* \"IoTDataStorage.sol\":1478:1483  index */\n      dup6\n        /* \"IoTDataStorage.sol\":1478:1504  index < dataRecords.length */\n      lt\n        /* \"IoTDataStorage.sol\":1470:1522  require(index < dataRecords.length, \"Invalid index\") */\n      tag_35\n      jumpi\n      mload(0x40)\n      0x08c379a000000000000000000000000000000000000000000000000000000000\n      dup2\n      mstore\n      0x04\n      add\n      tag_36\n      swap1\n      tag_37\n      jump\t// in\n    tag_36:\n      mload(0x40)\n      dup1\n      swap2\n      sub\n      swap1\n      revert\n    tag_35:\n        /* \"IoTDataStorage.sol\":1533:1554  IoTData memory record */\n      0x00\n        /* \"IoTDataStorage.sol\":1557:1568  dataRecords */\n      dup1\n        /* \"IoTDataStorage.sol\":1569:1574  index */\n      dup7\n        /* \"IoTDataStorage.sol\":1557:1575  dataRecords[index] */\n      dup2\n      sload\n      dup2\n      lt\n      tag_38\n      jumpi\n      mstore(0x00, 0x4e487b7100000000000000000000000000000000000000000000000000000000)\n      mstore(0x04, 0x32)\n      revert(0x00, 0x24)\n    tag_38:\n      swap1\n      0x00\n      mstore\n      keccak256(0x00, 0x20)\n      swap1\n      0x04\n      mul\n      add\n        /* \"IoTDataStorage.sol\":1533:1575  IoTData memory record = dataRecords[index] */\n      mload(0x40)\n      dup1\n      0x80\n      add\n      0x40\n      mstore\n      swap1\n      dup2\n      0x00\n      dup3\n      add\n      sload\n      dup2\n      mstore\n      0x20\n      add\n      0x01\n      dup3\n      add\n      dup1\n      sload\n      tag_40\n      swap1\n      tag_41\n      jump\t// in\n    tag_40:\n      dup1\n      0x1f\n      add\n      0x20\n      dup1\n      swap2\n      div\n      mul\n      0x20\n      add\n      mload(0x40)\n      swap1\n      dup2\n      add\n      0x40\n      mstore\n      dup1\n      swap3\n      swap2\n      swap1\n      dup2\n      dup2\n      mstore\n      0x20\n      add\n      dup3\n      dup1\n      sload\n      tag_42\n      swap1\n      tag_41\n      jump\t// in\n    tag_42:\n      dup1\n      iszero\n      tag_43\n      jumpi\n      dup1\n      0x1f\n      lt\n      tag_44\n      jumpi\n      0x0100\n      dup1\n      dup4\n      sload\n      div\n      mul\n      dup4\n      mstore\n      swap2\n      0x20\n      add\n      swap2\n      jump(tag_43)\n    tag_44:\n      dup3\n      add\n      swap2\n      swap1\n      0x00\n      mstore\n      keccak256(0x00, 0x20)\n      swap1\n    tag_45:\n      dup2\n      sload\n      dup2\n      mstore\n      swap1\n      0x01\n      add\n      swap1\n      0x20\n      add\n      dup1\n      dup4\n      gt\n      tag_45\n      jumpi\n      dup3\n      swap1\n      sub\n      0x1f\n      and\n      dup3\n      add\n      swap2\n    tag_43:\n      pop\n      pop\n      pop\n      pop\n      pop\n      dup2\n      mstore\n      0x20\n      add\n      0x02\n      dup3\n      add\n      dup1\n      sload\n      tag_46\n      swap1\n      tag_41\n      jump\t// in\n    tag_46:\n      dup1\n      0x1f\n      add\n      0x20\n      dup1\n      swap2\n      div\n      mul\n      0x20\n      add\n      mload(0x40)\n      swap1\n      dup2\n      add\n      0x40\n      mstore\n      dup1\n      swap3\n      swap2\n      swap1\n      dup2\n      dup2\n      mstore\n      0x20\n      add\n      dup3\n      dup1\n      sload\n      tag_47\n      swap1\n      tag_41\n      jump\t// in\n    tag_47:\n      dup1\n      iszero\n      tag_48\n      jumpi\n      dup1\n      0x1f\n      lt\n      tag_49\n      jumpi\n      0x0100\n      dup1\n      dup4\n      sload\n      div\n      mul\n      dup4\n      mstore\n      swap2\n      0x20\n      add\n      swap2\n      jump(tag_48)\n    tag_49:\n      dup3\n      add\n      swap2\n      swap1\n      0x00\n      mstore\n      keccak256(0x00, 0x20)\n      swap1\n    tag_50:\n      dup2\n      sload\n      dup2\n      mstore\n      swap1\n      0x01\n      add\n      swap1\n      0x20\n      add\n      dup1\n      dup4\n      gt\n      tag_50\n      jumpi\n      dup3\n      swap1\n      sub\n      0x1f\n      and\n      dup3\n      add\n      swap2\n    tag_48:\n      pop\n      pop\n      pop\n      pop\n      pop\n      dup2\n      mstore\n      0x20\n      add\n      0x03\n      dup3\n      add\n      dup1\n      sload\n      tag_51\n      swap1\n      tag_41\n      jump\t// in\n    tag_51:\n      dup1\n      0x1f\n      add\n      0x20\n      dup1\n      swap2\n      div\n      mul\n      0x20\n      add\n      mload(0x40)\n      swap1\n      dup2\n      add\n      0x40\n      mstore\n      dup1\n      swap3\n      swap2\n      swap1\n      dup2\n      dup2\n      mstore\n      0x20\n      add\n      dup3\n      dup1\n      sload\n      tag_52\n      swap1\n      tag_41\n      jump\t// in\n    tag_52:\n      dup1\n      iszero\n      tag_53\n      jumpi\n      dup1\n      0x1f\n      lt\n      tag_54\n      jumpi\n      0x0100\n      dup1\n      dup4\n      sload\n      div\n      mul\n      dup4\n      mstore\n      swap2\n      0x20\n      add\n      swap2\n      jump(tag_53)\n    tag_54:\n      dup3\n      add\n      swap2\n      swap1\n      0x00\n      mstore\n      keccak256(0x00, 0x20)\n      swap1\n    tag_55:\n      dup2\n      sload\n      dup2\n      mstore\n      swap1\n      0x01\n      add\n      swap1\n      0x20\n      add\n      dup1\n      dup4\n      gt\n      tag_55\n      jumpi\n      dup3\n      swap1\n      sub\n      0x1f\n      and\n      dup3\n      add\n      swap2\n    tag_53:\n      pop\n      pop\n      pop\n      pop\n      pop\n      dup2\n      mstore\n      pop\n      pop\n      swap1\n      pop\n        /* \"IoTDataStorage.sol\":1594:1600  record */\n      dup1\n        /* \"IoTDataStorage.sol\":1594:1610  record.timestamp */\n      0x00\n      add\n      mload\n        /* \"IoTDataStorage.sol\":1612:1618  record */\n      dup2\n        /* \"IoTDataStorage.sol\":1612:1628  record.packageId */\n      0x20\n      add\n      mload\n        /* \"IoTDataStorage.sol\":1630:1636  record */\n      dup3\n        /* \"IoTDataStorage.sol\":1630:1645  record.category */\n      0x40\n      add\n      mload\n        /* \"IoTDataStorage.sol\":1647:1653  record */\n      dup4\n        /* \"IoTDataStorage.sol\":1647:1659  record.value */\n      0x60\n      add\n      mload\n        /* \"IoTDataStorage.sol\":1586:1660  return (record.timestamp, record.packageId, record.category, record.value) */\n      swap5\n      pop\n      swap5\n      pop\n      swap5\n      pop\n      swap5\n      pop\n      pop\n        /* \"IoTDataStorage.sol\":1274:1668  function getData(uint256 index) public view returns (\r... */\n      swap2\n      swap4\n      pop\n      swap2\n      swap4\n      jump\t// out\n        /* \"IoTDataStorage.sol\":1168:1266  function getDataCount() public view returns (uint256) {\r... */\n    tag_16:\n        /* \"IoTDataStorage.sol\":1213:1220  uint256 */\n      0x00\n        /* \"IoTDataStorage.sol\":1240:1251  dataRecords */\n      dup1\n        /* \"IoTDataStorage.sol\":1240:1258  dataRecords.length */\n      dup1\n      sload\n      swap1\n      pop\n        /* \"IoTDataStorage.sol\":1233:1258  return dataRecords.length */\n      swap1\n      pop\n        /* \"IoTDataStorage.sol\":1168:1266  function getDataCount() public view returns (uint256) {\r... */\n      swap1\n      jump\t// out\n        /* \"IoTDataStorage.sol\":296:337  uint256 public constant MAX_ENTRIES = 100 */\n    tag_20:\n        /* \"IoTDataStorage.sol\":334:337  100 */\n      0x64\n        /* \"IoTDataStorage.sol\":296:337  uint256 public constant MAX_ENTRIES = 100 */\n      dup2\n      jump\t// out\n        /* \"IoTDataStorage.sol\":379:399  address public owner */\n    tag_23:\n      0x01\n      0x00\n      swap1\n      sload\n      swap1\n      0x0100\n      exp\n      swap1\n      div\n      0xffffffffffffffffffffffffffffffffffffffff\n      and\n      dup2\n      jump\t// out\n        /* \"IoTDataStorage.sol\":344:372  IoTData[] public dataRecords */\n    tag_28:\n      0x00\n      dup2\n      dup2\n      sload\n      dup2\n      lt\n      tag_57\n      jumpi\n      0x00\n      dup1\n      revert\n    tag_57:\n      swap1\n      0x00\n      mstore\n      keccak256(0x00, 0x20)\n      swap1\n      0x04\n      mul\n      add\n      0x00\n      swap2\n      pop\n      swap1\n      pop\n      dup1\n      0x00\n      add\n      sload\n      swap1\n      dup1\n      0x01\n      add\n      dup1\n      sload\n      tag_59\n      swap1\n      tag_41\n      jump\t// in\n    tag_59:\n      dup1\n      0x1f\n      add\n      0x20\n      dup1\n      swap2\n      div\n      mul\n      0x20\n      add\n      mload(0x40)\n      swap1\n      dup2\n      add\n      0x40\n      mstore\n      dup1\n      swap3\n      swap2\n      swap1\n      dup2\n      dup2\n      mstore\n      0x20\n      add\n      dup3\n      dup1\n      sload\n      tag_60\n      swap1\n      tag_41\n      jump\t// in\n    tag_60:\n      dup1\n      iszero\n      tag_61\n      jumpi\n      dup1\n      0x1f\n      lt\n      tag_62\n      jumpi\n      0x0100\n      dup1\n      dup4\n      sload\n      div\n      mul\n      dup4\n      mstore\n      swap2\n      0x20\n      add\n      swap2\n      jump(tag_61)\n    tag_62:\n      dup3\n      add\n      swap2\n      swap1\n      0x00\n      mstore\n      keccak256(0x00, 0x20)\n      swap1\n    tag_63:\n      dup2\n      sload\n      dup2\n      mstore\n      swap1\n      0x01\n      add\n      swap1\n      0x20\n      add\n      dup1\n      dup4\n      gt\n      tag_63\n      jumpi\n      dup3\n      swap1\n      sub\n      0x1f\n      and\n      dup3\n      add\n      swap2\n    tag_61:\n      pop\n      pop\n      pop\n      pop\n      pop\n      swap1\n      dup1\n      0x02\n      add\n      dup1\n      sload\n      tag_64\n      swap1\n      tag_41\n      jump\t// in\n    tag_64:\n      dup1\n      0x1f\n      add\n      0x20\n      dup1\n      swap2\n      div\n      mul\n      0x20\n      add\n      mload(0x40)\n      swap1\n      dup2\n      add\n      0x40\n      mstore\n      dup1\n      swap3\n      swap2\n      swap1\n      dup2\n      dup2\n      mstore\n      0x20\n      add\n      dup3\n      dup1\n      sload\n      tag_65\n      swap1\n      tag_41\n      jump\t// in\n    tag_65:\n      dup1\n      iszero\n      tag_66\n      jumpi\n      dup1\n      0x1f\n      lt\n      tag_67\n      jumpi\n      0x0100\n      dup1\n      dup4\n      sload\n      div\n      mul\n      dup4\n      mstore\n      swap2\n      0x20\n      add\n      swap2\n      jump(tag_66)\n    tag_67:\n      dup3\n      add\n      swap2\n      swap1\n      0x00\n      mstore\n      keccak256(0x00, 0x20)\n      swap1\n    tag_68:\n      dup2\n      sload\n      dup2\n      mstore\n      swap1\n      0x01\n      add\n      swap1\n      0x20\n      add\n      dup1\n      dup4\n      gt\n      tag_68\n      jumpi\n      dup3\n      swap1\n      sub\n      0x1f\n      and\n      dup3\n      add\n      swap2\n    tag_66:\n      pop\n      pop\n      pop\n      pop\n      pop\n      swap1\n      dup1\n      0x03\n      add\n      dup1\n      sload\n      tag_69\n      swap1\n      tag_41\n      jump\t// in\n    tag_69:\n      dup1\n      0x1f\n      add\n      0x20\n      dup1\n      swap2\n      div\n      mul\n      0x20\n      add\n      mload(0x40)\n      swap1\n      dup2\n      add\n      0x40\n      mstore\n      dup1\n      swap3\n      swap2\n      swap1\n      dup2\n      dup2\n      mstore\n      0x20\n      add\n      dup3\n      dup1\n      sload\n      tag_70\n      swap1\n      tag_41\n      jump\t// in\n    tag_70:\n      dup1\n      iszero\n      tag_71\n      jumpi\n      dup1\n      0x1f\n      lt\n      tag_72\n      jumpi\n      0x0100\n      dup1\n      dup4\n      sload\n      div\n      mul\n      dup4\n      mstore\n      swap2\n      0x20\n      add\n      swap2\n      jump(tag_71)\n    tag_72:\n      dup3\n      add\n      swap2\n      swap1\n      0x00\n      mstore\n      keccak256(0x00, 0x20)\n      swap1\n    tag_73:\n      dup2\n      sload\n      dup2\n      mstore\n      swap1\n      0x01\n      add\n      swap1\n      0x20\n      add\n      dup1\n      dup4\n      gt\n      tag_73\n      jumpi\n      dup3\n      swap1\n      sub\n      0x1f\n      and\n      dup3\n      add\n      swap2\n    tag_71:\n      pop\n      pop\n      pop\n      pop\n      pop\n      swap1\n      pop\n      dup5\n      jump\t// out\n        /* \"IoTDataStorage.sol\":666:1160  function storeData(string memory packageId, string memory category, string memory value) public onlyOwner {\r... */\n    tag_33:\n        /* \"IoTDataStorage.sol\":555:560  owner */\n      0x01\n      0x00\n      swap1\n      sload\n      swap1\n      0x0100\n      exp\n      swap1\n      div\n      0xffffffffffffffffffffffffffffffffffffffff\n      and\n        /* \"IoTDataStorage.sol\":541:560  msg.sender == owner */\n      0xffffffffffffffffffffffffffffffffffffffff\n      and\n        /* \"IoTDataStorage.sol\":541:551  msg.sender */\n      caller\n        /* \"IoTDataStorage.sol\":541:560  msg.sender == owner */\n      0xffffffffffffffffffffffffffffffffffffffff\n      and\n      eq\n        /* \"IoTDataStorage.sol\":533:579  require(msg.sender == owner, \"Not authorized\") */\n      tag_75\n      jumpi\n      mload(0x40)\n      0x08c379a000000000000000000000000000000000000000000000000000000000\n      dup2\n      mstore\n      0x04\n      add\n      tag_76\n      swap1\n      tag_77\n      jump\t// in\n    tag_76:\n      mload(0x40)\n      dup1\n      swap2\n      sub\n      swap1\n      revert\n    tag_75:\n        /* \"IoTDataStorage.sol\":334:337  100 */\n      0x64\n        /* \"IoTDataStorage.sol\":791:802  dataRecords */\n      0x00\n        /* \"IoTDataStorage.sol\":791:809  dataRecords.length */\n      dup1\n      sload\n      swap1\n      pop\n        /* \"IoTDataStorage.sol\":791:823  dataRecords.length < MAX_ENTRIES */\n      lt\n        /* \"IoTDataStorage.sol\":783:849  require(dataRecords.length < MAX_ENTRIES, \"Storage limit reached\") */\n      tag_79\n      jumpi\n      mload(0x40)\n      0x08c379a000000000000000000000000000000000000000000000000000000000\n      dup2\n      mstore\n      0x04\n      add\n      tag_80\n      swap1\n      tag_81\n      jump\t// in\n    tag_80:\n      mload(0x40)\n      dup1\n      swap2\n      sub\n      swap1\n      revert\n    tag_79:\n        /* \"IoTDataStorage.sol\":862:884  IoTData memory newData */\n      0x00\n        /* \"IoTDataStorage.sol\":887:1043  IoTData({\r... */\n      mload(0x40)\n      dup1\n      0x80\n      add\n      0x40\n      mstore\n      dup1\n        /* \"IoTDataStorage.sol\":921:936  block.timestamp */\n      timestamp\n        /* \"IoTDataStorage.sol\":887:1043  IoTData({\r... */\n      dup2\n      mstore\n      0x20\n      add\n        /* \"IoTDataStorage.sol\":962:971  packageId */\n      dup6\n        /* \"IoTDataStorage.sol\":887:1043  IoTData({\r... */\n      dup2\n      mstore\n      0x20\n      add\n        /* \"IoTDataStorage.sol\":996:1004  category */\n      dup5\n        /* \"IoTDataStorage.sol\":887:1043  IoTData({\r... */\n      dup2\n      mstore\n      0x20\n      add\n        /* \"IoTDataStorage.sol\":1026:1031  value */\n      dup4\n        /* \"IoTDataStorage.sol\":887:1043  IoTData({\r... */\n      dup2\n      mstore\n      pop\n        /* \"IoTDataStorage.sol\":862:1043  IoTData memory newData = IoTData({\r... */\n      swap1\n      pop\n        /* \"IoTDataStorage.sol\":1056:1067  dataRecords */\n      0x00\n        /* \"IoTDataStorage.sol\":1073:1080  newData */\n      dup2\n        /* \"IoTDataStorage.sol\":1056:1081  dataRecords.push(newData) */\n      swap1\n      dup1\n      0x01\n      dup2\n      sload\n      add\n      dup1\n      dup3\n      sstore\n      dup1\n      swap2\n      pop\n      pop\n      0x01\n      swap1\n      sub\n      swap1\n      0x00\n      mstore\n      keccak256(0x00, 0x20)\n      swap1\n      0x04\n      mul\n      add\n      0x00\n      swap1\n      swap2\n      swap1\n      swap2\n      swap1\n      swap2\n      pop\n      0x00\n      dup3\n      add\n      mload\n      dup2\n      0x00\n      add\n      sstore\n      0x20\n      dup3\n      add\n      mload\n      dup2\n      0x01\n      add\n      swap1\n      dup1\n      mload\n      swap1\n      0x20\n      add\n      swap1\n      tag_83\n      swap3\n      swap2\n      swap1\n      tag_84\n      jump\t// in\n    tag_83:\n      pop\n      0x40\n      dup3\n      add\n      mload\n      dup2\n      0x02\n      add\n      swap1\n      dup1\n      mload\n      swap1\n      0x20\n      add\n      swap1\n      tag_85\n      swap3\n      swap2\n      swap1\n      tag_84\n      jump\t// in\n    tag_85:\n      pop\n      0x60\n      dup3\n      add\n      mload\n      dup2\n      0x03\n      add\n      swap1\n      dup1\n      mload\n      swap1\n      0x20\n      add\n      swap1\n      tag_86\n      swap3\n      swap2\n      swap1\n      tag_84\n      jump\t// in\n    tag_86:\n      pop\n      pop\n      pop\n        /* \"IoTDataStorage.sol\":1097:1152  DataStored(block.timestamp, packageId, category, value) */\n      0xc27557253cfa793c3de4beda3cf3aad78548fbff6f148459c5d4e26e97d6e258\n        /* \"IoTDataStorage.sol\":1108:1123  block.timestamp */\n      timestamp\n        /* \"IoTDataStorage.sol\":1125:1134  packageId */\n      dup6\n        /* \"IoTDataStorage.sol\":1136:1144  category */\n      dup6\n        /* \"IoTDataStorage.sol\":1146:1151  value */\n      dup6\n        /* \"IoTDataStorage.sol\":1097:1152  DataStored(block.timestamp, packageId, category, value) */\n      mload(0x40)\n      tag_87\n      swap5\n      swap4\n      swap3\n      swap2\n      swap1\n      tag_14\n      jump\t// in\n    tag_87:\n      mload(0x40)\n      dup1\n      swap2\n      sub\n      swap1\n      log1\n        /* \"IoTDataStorage.sol\":590:591  _ */\n      pop\n        /* \"IoTDataStorage.sol\":666:1160  function storeData(string memory packageId, string memory category, string memory value) public onlyOwner {\r... */\n      pop\n      pop\n      pop\n      jump\t// out\n    tag_84:\n      dup3\n      dup1\n      sload\n      tag_88\n      swap1\n      tag_41\n      jump\t// in\n    tag_88:\n      swap1\n      0x00\n      mstore\n      keccak256(0x00, 0x20)\n      swap1\n      0x1f\n      add\n      0x20\n      swap1\n      div\n      dup2\n      add\n      swap3\n      dup3\n      tag_90\n      jumpi\n      0x00\n      dup6\n      sstore\n      jump(tag_89)\n    tag_90:\n      dup3\n      0x1f\n      lt\n      tag_91\n      jumpi\n      dup1\n      mload\n      not(0xff)\n      and\n      dup4\n      dup1\n      add\n      or\n      dup6\n      sstore\n      jump(tag_89)\n    tag_91:\n      dup3\n      dup1\n      add\n      0x01\n      add\n      dup6\n      sstore\n      dup3\n      iszero\n      tag_89\n      jumpi\n      swap2\n      dup3\n      add\n    tag_92:\n      dup3\n      dup2\n      gt\n      iszero\n      tag_93\n      jumpi\n      dup3\n      mload\n      dup3\n      sstore\n      swap2\n      0x20\n      add\n      swap2\n      swap1\n      0x01\n      add\n      swap1\n      jump(tag_92)\n    tag_93:\n    tag_89:\n      pop\n      swap1\n      pop\n      tag_94\n      swap2\n      swap1\n      tag_95\n      jump\t// in\n    tag_94:\n      pop\n      swap1\n      jump\t// out\n    tag_95:\n    tag_96:\n      dup1\n      dup3\n      gt\n      iszero\n      tag_97\n      jumpi\n      0x00\n      dup2\n      0x00\n      swap1\n      sstore\n      pop\n      0x01\n      add\n      jump(tag_96)\n    tag_97:\n      pop\n      swap1\n      jump\t// out\n        /* \"#utility.yul\":7:351   */\n    tag_99:\n      0x00\n        /* \"#utility.yul\":110:175   */\n      tag_101\n        /* \"#utility.yul\":125:174   */\n      tag_102\n        /* \"#utility.yul\":167:173   */\n      dup5\n        /* \"#utility.yul\":125:174   */\n      tag_103\n      jump\t// in\n    tag_102:\n        /* \"#utility.yul\":110:175   */\n      tag_104\n      jump\t// in\n    tag_101:\n        /* \"#utility.yul\":101:175   */\n      swap1\n      pop\n        /* \"#utility.yul\":198:204   */\n      dup3\n        /* \"#utility.yul\":191:196   */\n      dup2\n        /* \"#utility.yul\":184:205   */\n      mstore\n        /* \"#utility.yul\":236:240   */\n      0x20\n        /* \"#utility.yul\":229:234   */\n      dup2\n        /* \"#utility.yul\":225:241   */\n      add\n        /* \"#utility.yul\":274:277   */\n      dup5\n        /* \"#utility.yul\":265:271   */\n      dup5\n        /* \"#utility.yul\":260:263   */\n      dup5\n        /* \"#utility.yul\":256:272   */\n      add\n        /* \"#utility.yul\":253:278   */\n      gt\n        /* \"#utility.yul\":250:252   */\n      iszero\n      tag_105\n      jumpi\n        /* \"#utility.yul\":291:292   */\n      0x00\n        /* \"#utility.yul\":288:289   */\n      dup1\n        /* \"#utility.yul\":281:293   */\n      revert\n        /* \"#utility.yul\":250:252   */\n    tag_105:\n        /* \"#utility.yul\":304:345   */\n      tag_106\n        /* \"#utility.yul\":338:344   */\n      dup5\n        /* \"#utility.yul\":333:336   */\n      dup3\n        /* \"#utility.yul\":328:331   */\n      dup6\n        /* \"#utility.yul\":304:345   */\n      tag_107\n      jump\t// in\n    tag_106:\n        /* \"#utility.yul\":91:351   */\n      pop\n      swap4\n      swap3\n      pop\n      pop\n      pop\n      jump\t// out\n        /* \"#utility.yul\":371:644   */\n    tag_108:\n      0x00\n        /* \"#utility.yul\":476:479   */\n      dup3\n        /* \"#utility.yul\":469:473   */\n      0x1f\n        /* \"#utility.yul\":461:467   */\n      dup4\n        /* \"#utility.yul\":457:474   */\n      add\n        /* \"#utility.yul\":453:480   */\n      slt\n        /* \"#utility.yul\":443:445   */\n      tag_110\n      jumpi\n        /* \"#utility.yul\":494:495   */\n      0x00\n        /* \"#utility.yul\":491:492   */\n      dup1\n        /* \"#utility.yul\":484:496   */\n      revert\n        /* \"#utility.yul\":443:445   */\n    tag_110:\n        /* \"#utility.yul\":534:540   */\n      dup2\n        /* \"#utility.yul\":521:541   */\n      calldataload\n        /* \"#utility.yul\":559:638   */\n      tag_111\n        /* \"#utility.yul\":634:637   */\n      dup5\n        /* \"#utility.yul\":626:632   */\n      dup3\n        /* \"#utility.yul\":619:623   */\n      0x20\n        /* \"#utility.yul\":611:617   */\n      dup7\n        /* \"#utility.yul\":607:624   */\n      add\n        /* \"#utility.yul\":559:638   */\n      tag_99\n      jump\t// in\n    tag_111:\n        /* \"#utility.yul\":550:638   */\n      swap2\n      pop\n        /* \"#utility.yul\":433:644   */\n      pop\n      swap3\n      swap2\n      pop\n      pop\n      jump\t// out\n        /* \"#utility.yul\":650:789   */\n    tag_112:\n      0x00\n        /* \"#utility.yul\":734:740   */\n      dup2\n        /* \"#utility.yul\":721:741   */\n      calldataload\n        /* \"#utility.yul\":712:741   */\n      swap1\n      pop\n        /* \"#utility.yul\":750:783   */\n      tag_114\n        /* \"#utility.yul\":777:782   */\n      dup2\n        /* \"#utility.yul\":750:783   */\n      tag_115\n      jump\t// in\n    tag_114:\n        /* \"#utility.yul\":702:789   */\n      swap3\n      swap2\n      pop\n      pop\n      jump\t// out\n        /* \"#utility.yul\":795:1686   */\n    tag_32:\n      0x00\n      dup1\n      0x00\n        /* \"#utility.yul\":967:969   */\n      0x60\n        /* \"#utility.yul\":955:964   */\n      dup5\n        /* \"#utility.yul\":946:953   */\n      dup7\n        /* \"#utility.yul\":942:965   */\n      sub\n        /* \"#utility.yul\":938:970   */\n      slt\n        /* \"#utility.yul\":935:937   */\n      iszero\n      tag_117\n      jumpi\n        /* \"#utility.yul\":983:984   */\n      0x00\n        /* \"#utility.yul\":980:981   */\n      dup1\n        /* \"#utility.yul\":973:985   */\n      revert\n        /* \"#utility.yul\":935:937   */\n    tag_117:\n        /* \"#utility.yul\":1054:1055   */\n      0x00\n        /* \"#utility.yul\":1043:1052   */\n      dup5\n        /* \"#utility.yul\":1039:1056   */\n      add\n        /* \"#utility.yul\":1026:1057   */\n      calldataload\n        /* \"#utility.yul\":1084:1102   */\n      0xffffffffffffffff\n        /* \"#utility.yul\":1076:1082   */\n      dup2\n        /* \"#utility.yul\":1073:1103   */\n      gt\n        /* \"#utility.yul\":1070:1072   */\n      iszero\n      tag_118\n      jumpi\n        /* \"#utility.yul\":1116:1117   */\n      0x00\n        /* \"#utility.yul\":1113:1114   */\n      dup1\n        /* \"#utility.yul\":1106:1118   */\n      revert\n        /* \"#utility.yul\":1070:1072   */\n    tag_118:\n        /* \"#utility.yul\":1144:1207   */\n      tag_119\n        /* \"#utility.yul\":1199:1206   */\n      dup7\n        /* \"#utility.yul\":1190:1196   */\n      dup3\n        /* \"#utility.yul\":1179:1188   */\n      dup8\n        /* \"#utility.yul\":1175:1197   */\n      add\n        /* \"#utility.yul\":1144:1207   */\n      tag_108\n      jump\t// in\n    tag_119:\n        /* \"#utility.yul\":1134:1207   */\n      swap4\n      pop\n        /* \"#utility.yul\":997:1217   */\n      pop\n        /* \"#utility.yul\":1284:1286   */\n      0x20\n        /* \"#utility.yul\":1273:1282   */\n      dup5\n        /* \"#utility.yul\":1269:1287   */\n      add\n        /* \"#utility.yul\":1256:1288   */\n      calldataload\n        /* \"#utility.yul\":1315:1333   */\n      0xffffffffffffffff\n        /* \"#utility.yul\":1307:1313   */\n      dup2\n        /* \"#utility.yul\":1304:1334   */\n      gt\n        /* \"#utility.yul\":1301:1303   */\n      iszero\n      tag_120\n      jumpi\n        /* \"#utility.yul\":1347:1348   */\n      0x00\n        /* \"#utility.yul\":1344:1345   */\n      dup1\n        /* \"#utility.yul\":1337:1349   */\n      revert\n        /* \"#utility.yul\":1301:1303   */\n    tag_120:\n        /* \"#utility.yul\":1375:1438   */\n      tag_121\n        /* \"#utility.yul\":1430:1437   */\n      dup7\n        /* \"#utility.yul\":1421:1427   */\n      dup3\n        /* \"#utility.yul\":1410:1419   */\n      dup8\n        /* \"#utility.yul\":1406:1428   */\n      add\n        /* \"#utility.yul\":1375:1438   */\n      tag_108\n      jump\t// in\n    tag_121:\n        /* \"#utility.yul\":1365:1438   */\n      swap3\n      pop\n        /* \"#utility.yul\":1227:1448   */\n      pop\n        /* \"#utility.yul\":1515:1517   */\n      0x40\n        /* \"#utility.yul\":1504:1513   */\n      dup5\n        /* \"#utility.yul\":1500:1518   */\n      add\n        /* \"#utility.yul\":1487:1519   */\n      calldataload\n        /* \"#utility.yul\":1546:1564   */\n      0xffffffffffffffff\n        /* \"#utility.yul\":1538:1544   */\n      dup2\n        /* \"#utility.yul\":1535:1565   */\n      gt\n        /* \"#utility.yul\":1532:1534   */\n      iszero\n      tag_122\n      jumpi\n        /* \"#utility.yul\":1578:1579   */\n      0x00\n        /* \"#utility.yul\":1575:1576   */\n      dup1\n        /* \"#utility.yul\":1568:1580   */\n      revert\n        /* \"#utility.yul\":1532:1534   */\n    tag_122:\n        /* \"#utility.yul\":1606:1669   */\n      tag_123\n        /* \"#utility.yul\":1661:1668   */\n      dup7\n        /* \"#utility.yul\":1652:1658   */\n      dup3\n        /* \"#utility.yul\":1641:1650   */\n      dup8\n        /* \"#utility.yul\":1637:1659   */\n      add\n        /* \"#utility.yul\":1606:1669   */\n      tag_108\n      jump\t// in\n    tag_123:\n        /* \"#utility.yul\":1596:1669   */\n      swap2\n      pop\n        /* \"#utility.yul\":1458:1679   */\n      pop\n        /* \"#utility.yul\":925:1686   */\n      swap3\n      pop\n      swap3\n      pop\n      swap3\n      jump\t// out\n        /* \"#utility.yul\":1692:1954   */\n    tag_11:\n      0x00\n        /* \"#utility.yul\":1800:1802   */\n      0x20\n        /* \"#utility.yul\":1788:1797   */\n      dup3\n        /* \"#utility.yul\":1779:1786   */\n      dup5\n        /* \"#utility.yul\":1775:1798   */\n      sub\n        /* \"#utility.yul\":1771:1803   */\n      slt\n        /* \"#utility.yul\":1768:1770   */\n      iszero\n      tag_125\n      jumpi\n        /* \"#utility.yul\":1816:1817   */\n      0x00\n        /* \"#utility.yul\":1813:1814   */\n      dup1\n        /* \"#utility.yul\":1806:1818   */\n      revert\n        /* \"#utility.yul\":1768:1770   */\n    tag_125:\n        /* \"#utility.yul\":1859:1860   */\n      0x00\n        /* \"#utility.yul\":1884:1937   */\n      tag_126\n        /* \"#utility.yul\":1929:1936   */\n      dup5\n        /* \"#utility.yul\":1920:1926   */\n      dup3\n        /* \"#utility.yul\":1909:1918   */\n      dup6\n        /* \"#utility.yul\":1905:1927   */\n      add\n        /* \"#utility.yul\":1884:1937   */\n      tag_112\n      jump\t// in\n    tag_126:\n        /* \"#utility.yul\":1874:1937   */\n      swap2\n      pop\n        /* \"#utility.yul\":1830:1947   */\n      pop\n        /* \"#utility.yul\":1758:1954   */\n      swap3\n      swap2\n      pop\n      pop\n      jump\t// out\n        /* \"#utility.yul\":1960:2078   */\n    tag_127:\n        /* \"#utility.yul\":2047:2071   */\n      tag_129\n        /* \"#utility.yul\":2065:2070   */\n      dup2\n        /* \"#utility.yul\":2047:2071   */\n      tag_130\n      jump\t// in\n    tag_129:\n        /* \"#utility.yul\":2042:2045   */\n      dup3\n        /* \"#utility.yul\":2035:2072   */\n      mstore\n        /* \"#utility.yul\":2025:2078   */\n      pop\n      pop\n      jump\t// out\n        /* \"#utility.yul\":2084:2448   */\n    tag_131:\n      0x00\n        /* \"#utility.yul\":2200:2239   */\n      tag_133\n        /* \"#utility.yul\":2233:2238   */\n      dup3\n        /* \"#utility.yul\":2200:2239   */\n      tag_134\n      jump\t// in\n    tag_133:\n        /* \"#utility.yul\":2255:2326   */\n      tag_135\n        /* \"#utility.yul\":2319:2325   */\n      dup2\n        /* \"#utility.yul\":2314:2317   */\n      dup6\n        /* \"#utility.yul\":2255:2326   */\n      tag_136\n      jump\t// in\n    tag_135:\n        /* \"#utility.yul\":2248:2326   */\n      swap4\n      pop\n        /* \"#utility.yul\":2335:2387   */\n      tag_137\n        /* \"#utility.yul\":2380:2386   */\n      dup2\n        /* \"#utility.yul\":2375:2378   */\n      dup6\n        /* \"#utility.yul\":2368:2372   */\n      0x20\n        /* \"#utility.yul\":2361:2366   */\n      dup7\n        /* \"#utility.yul\":2357:2373   */\n      add\n        /* \"#utility.yul\":2335:2387   */\n      tag_138\n      jump\t// in\n    tag_137:\n        /* \"#utility.yul\":2412:2441   */\n      tag_139\n        /* \"#utility.yul\":2434:2440   */\n      dup2\n        /* \"#utility.yul\":2412:2441   */\n      tag_140\n      jump\t// in\n    tag_139:\n        /* \"#utility.yul\":2407:2410   */\n      dup5\n        /* \"#utility.yul\":2403:2442   */\n      add\n        /* \"#utility.yul\":2396:2442   */\n      swap2\n      pop\n        /* \"#utility.yul\":2176:2448   */\n      pop\n      swap3\n      swap2\n      pop\n      pop\n      jump\t// out\n        /* \"#utility.yul\":2454:2765   */\n    tag_141:\n      0x00\n        /* \"#utility.yul\":2617:2684   */\n      tag_143\n        /* \"#utility.yul\":2681:2683   */\n      0x0d\n        /* \"#utility.yul\":2676:2679   */\n      dup4\n        /* \"#utility.yul\":2617:2684   */\n      tag_136\n      jump\t// in\n    tag_143:\n        /* \"#utility.yul\":2610:2684   */\n      swap2\n      pop\n        /* \"#utility.yul\":2714:2729   */\n      0x496e76616c696420696e64657800000000000000000000000000000000000000\n        /* \"#utility.yul\":2710:2711   */\n      0x00\n        /* \"#utility.yul\":2705:2708   */\n      dup4\n        /* \"#utility.yul\":2701:2712   */\n      add\n        /* \"#utility.yul\":2694:2730   */\n      mstore\n        /* \"#utility.yul\":2756:2758   */\n      0x20\n        /* \"#utility.yul\":2751:2754   */\n      dup3\n        /* \"#utility.yul\":2747:2759   */\n      add\n        /* \"#utility.yul\":2740:2759   */\n      swap1\n      pop\n        /* \"#utility.yul\":2600:2765   */\n      swap2\n      swap1\n      pop\n      jump\t// out\n        /* \"#utility.yul\":2771:3090   */\n    tag_144:\n      0x00\n        /* \"#utility.yul\":2934:3001   */\n      tag_146\n        /* \"#utility.yul\":2998:3000   */\n      0x15\n        /* \"#utility.yul\":2993:2996   */\n      dup4\n        /* \"#utility.yul\":2934:3001   */\n      tag_136\n      jump\t// in\n    tag_146:\n        /* \"#utility.yul\":2927:3001   */\n      swap2\n      pop\n        /* \"#utility.yul\":3031:3054   */\n      0x53746f72616765206c696d697420726561636865640000000000000000000000\n        /* \"#utility.yul\":3027:3028   */\n      0x00\n        /* \"#utility.yul\":3022:3025   */\n      dup4\n        /* \"#utility.yul\":3018:3029   */\n      add\n        /* \"#utility.yul\":3011:3055   */\n      mstore\n        /* \"#utility.yul\":3081:3083   */\n      0x20\n        /* \"#utility.yul\":3076:3079   */\n      dup3\n        /* \"#utility.yul\":3072:3084   */\n      add\n        /* \"#utility.yul\":3065:3084   */\n      swap1\n      pop\n        /* \"#utility.yul\":2917:3090   */\n      swap2\n      swap1\n      pop\n      jump\t// out\n        /* \"#utility.yul\":3096:3408   */\n    tag_147:\n      0x00\n        /* \"#utility.yul\":3259:3326   */\n      tag_149\n        /* \"#utility.yul\":3323:3325   */\n      0x0e\n        /* \"#utility.yul\":3318:3321   */\n      dup4\n        /* \"#utility.yul\":3259:3326   */\n      tag_136\n      jump\t// in\n    tag_149:\n        /* \"#utility.yul\":3252:3326   */\n      swap2\n      pop\n        /* \"#utility.yul\":3356:3372   */\n      0x4e6f7420617574686f72697a6564000000000000000000000000000000000000\n        /* \"#utility.yul\":3352:3353   */\n      0x00\n        /* \"#utility.yul\":3347:3350   */\n      dup4\n        /* \"#utility.yul\":3343:3354   */\n      add\n        /* \"#utility.yul\":3336:3373   */\n      mstore\n        /* \"#utility.yul\":3399:3401   */\n      0x20\n        /* \"#utility.yul\":3394:3397   */\n      dup3\n        /* \"#utility.yul\":3390:3402   */\n      add\n        /* \"#utility.yul\":3383:3402   */\n      swap1\n      pop\n        /* \"#utility.yul\":3242:3408   */\n      swap2\n      swap1\n      pop\n      jump\t// out\n        /* \"#utility.yul\":3414:3532   */\n    tag_150:\n        /* \"#utility.yul\":3501:3525   */\n      tag_152\n        /* \"#utility.yul\":3519:3524   */\n      dup2\n        /* \"#utility.yul\":3501:3525   */\n      tag_153\n      jump\t// in\n    tag_152:\n        /* \"#utility.yul\":3496:3499   */\n      dup3\n        /* \"#utility.yul\":3489:3526   */\n      mstore\n        /* \"#utility.yul\":3479:3532   */\n      pop\n      pop\n      jump\t// out\n        /* \"#utility.yul\":3538:3760   */\n    tag_25:\n      0x00\n        /* \"#utility.yul\":3669:3671   */\n      0x20\n        /* \"#utility.yul\":3658:3667   */\n      dup3\n        /* \"#utility.yul\":3654:3672   */\n      add\n        /* \"#utility.yul\":3646:3672   */\n      swap1\n      pop\n        /* \"#utility.yul\":3682:3753   */\n      tag_155\n        /* \"#utility.yul\":3750:3751   */\n      0x00\n        /* \"#utility.yul\":3739:3748   */\n      dup4\n        /* \"#utility.yul\":3735:3752   */\n      add\n        /* \"#utility.yul\":3726:3732   */\n      dup5\n        /* \"#utility.yul\":3682:3753   */\n      tag_127\n      jump\t// in\n    tag_155:\n        /* \"#utility.yul\":3636:3760   */\n      swap3\n      swap2\n      pop\n      pop\n      jump\t// out\n        /* \"#utility.yul\":3766:4185   */\n    tag_37:\n      0x00\n        /* \"#utility.yul\":3970:3972   */\n      0x20\n        /* \"#utility.yul\":3959:3968   */\n      dup3\n        /* \"#utility.yul\":3955:3973   */\n      add\n        /* \"#utility.yul\":3947:3973   */\n      swap1\n      pop\n        /* \"#utility.yul\":4019:4028   */\n      dup2\n        /* \"#utility.yul\":4013:4017   */\n      dup2\n        /* \"#utility.yul\":4009:4029   */\n      sub\n        /* \"#utility.yul\":4005:4006   */\n      0x00\n        /* \"#utility.yul\":3994:4003   */\n      dup4\n        /* \"#utility.yul\":3990:4007   */\n      add\n        /* \"#utility.yul\":3983:4030   */\n      mstore\n        /* \"#utility.yul\":4047:4178   */\n      tag_157\n        /* \"#utility.yul\":4173:4177   */\n      dup2\n        /* \"#utility.yul\":4047:4178   */\n      tag_141\n      jump\t// in\n    tag_157:\n        /* \"#utility.yul\":4039:4178   */\n      swap1\n      pop\n        /* \"#utility.yul\":3937:4185   */\n      swap2\n      swap1\n      pop\n      jump\t// out\n        /* \"#utility.yul\":4191:4610   */\n    tag_81:\n      0x00\n        /* \"#utility.yul\":4395:4397   */\n      0x20\n        /* \"#utility.yul\":4384:4393   */\n      dup3\n        /* \"#utility.yul\":4380:4398   */\n      add\n        /* \"#utility.yul\":4372:4398   */\n      swap1\n      pop\n        /* \"#utility.yul\":4444:4453   */\n      dup2\n        /* \"#utility.yul\":4438:4442   */\n      dup2\n        /* \"#utility.yul\":4434:4454   */\n      sub\n        /* \"#utility.yul\":4430:4431   */\n      0x00\n        /* \"#utility.yul\":4419:4428   */\n      dup4\n        /* \"#utility.yul\":4415:4432   */\n      add\n        /* \"#utility.yul\":4408:4455   */\n      mstore\n        /* \"#utility.yul\":4472:4603   */\n      tag_159\n        /* \"#utility.yul\":4598:4602   */\n      dup2\n        /* \"#utility.yul\":4472:4603   */\n      tag_144\n      jump\t// in\n    tag_159:\n        /* \"#utility.yul\":4464:4603   */\n      swap1\n      pop\n        /* \"#utility.yul\":4362:4610   */\n      swap2\n      swap1\n      pop\n      jump\t// out\n        /* \"#utility.yul\":4616:5035   */\n    tag_77:\n      0x00\n        /* \"#utility.yul\":4820:4822   */\n      0x20\n        /* \"#utility.yul\":4809:4818   */\n      dup3\n        /* \"#utility.yul\":4805:4823   */\n      add\n        /* \"#utility.yul\":4797:4823   */\n      swap1\n      pop\n        /* \"#utility.yul\":4869:4878   */\n      dup2\n        /* \"#utility.yul\":4863:4867   */\n      dup2\n        /* \"#utility.yul\":4859:4879   */\n      sub\n        /* \"#utility.yul\":4855:4856   */\n      0x00\n        /* \"#utility.yul\":4844:4853   */\n      dup4\n        /* \"#utility.yul\":4840:4857   */\n      add\n        /* \"#utility.yul\":4833:4880   */\n      mstore\n        /* \"#utility.yul\":4897:5028   */\n      tag_161\n        /* \"#utility.yul\":5023:5027   */\n      dup2\n        /* \"#utility.yul\":4897:5028   */\n      tag_147\n      jump\t// in\n    tag_161:\n        /* \"#utility.yul\":4889:5028   */\n      swap1\n      pop\n        /* \"#utility.yul\":4787:5035   */\n      swap2\n      swap1\n      pop\n      jump\t// out\n        /* \"#utility.yul\":5041:5263   */\n    tag_18:\n      0x00\n        /* \"#utility.yul\":5172:5174   */\n      0x20\n        /* \"#utility.yul\":5161:5170   */\n      dup3\n        /* \"#utility.yul\":5157:5175   */\n      add\n        /* \"#utility.yul\":5149:5175   */\n      swap1\n      pop\n        /* \"#utility.yul\":5185:5256   */\n      tag_163\n        /* \"#utility.yul\":5253:5254   */\n      0x00\n        /* \"#utility.yul\":5242:5251   */\n      dup4\n        /* \"#utility.yul\":5238:5255   */\n      add\n        /* \"#utility.yul\":5229:5235   */\n      dup5\n        /* \"#utility.yul\":5185:5256   */\n      tag_150\n      jump\t// in\n    tag_163:\n        /* \"#utility.yul\":5139:5263   */\n      swap3\n      swap2\n      pop\n      pop\n      jump\t// out\n        /* \"#utility.yul\":5269:6095   */\n    tag_14:\n      0x00\n        /* \"#utility.yul\":5544:5547   */\n      0x80\n        /* \"#utility.yul\":5533:5542   */\n      dup3\n        /* \"#utility.yul\":5529:5548   */\n      add\n        /* \"#utility.yul\":5521:5548   */\n      swap1\n      pop\n        /* \"#utility.yul\":5558:5629   */\n      tag_165\n        /* \"#utility.yul\":5626:5627   */\n      0x00\n        /* \"#utility.yul\":5615:5624   */\n      dup4\n        /* \"#utility.yul\":5611:5628   */\n      add\n        /* \"#utility.yul\":5602:5608   */\n      dup8\n        /* \"#utility.yul\":5558:5629   */\n      tag_150\n      jump\t// in\n    tag_165:\n        /* \"#utility.yul\":5676:5685   */\n      dup2\n        /* \"#utility.yul\":5670:5674   */\n      dup2\n        /* \"#utility.yul\":5666:5686   */\n      sub\n        /* \"#utility.yul\":5661:5663   */\n      0x20\n        /* \"#utility.yul\":5650:5659   */\n      dup4\n        /* \"#utility.yul\":5646:5664   */\n      add\n        /* \"#utility.yul\":5639:5687   */\n      mstore\n        /* \"#utility.yul\":5704:5782   */\n      tag_166\n        /* \"#utility.yul\":5777:5781   */\n      dup2\n        /* \"#utility.yul\":5768:5774   */\n      dup7\n        /* \"#utility.yul\":5704:5782   */\n      tag_131\n      jump\t// in\n    tag_166:\n        /* \"#utility.yul\":5696:5782   */\n      swap1\n      pop\n        /* \"#utility.yul\":5829:5838   */\n      dup2\n        /* \"#utility.yul\":5823:5827   */\n      dup2\n        /* \"#utility.yul\":5819:5839   */\n      sub\n        /* \"#utility.yul\":5814:5816   */\n      0x40\n        /* \"#utility.yul\":5803:5812   */\n      dup4\n        /* \"#utility.yul\":5799:5817   */\n      add\n        /* \"#utility.yul\":5792:5840   */\n      mstore\n        /* \"#utility.yul\":5857:5935   */\n      tag_167\n        /* \"#utility.yul\":5930:5934   */\n      dup2\n        /* \"#utility.yul\":5921:5927   */\n      dup6\n        /* \"#utility.yul\":5857:5935   */\n      tag_131\n      jump\t// in\n    tag_167:\n        /* \"#utility.yul\":5849:5935   */\n      swap1\n      pop\n        /* \"#utility.yul\":5982:5991   */\n      dup2\n        /* \"#utility.yul\":5976:5980   */\n      dup2\n        /* \"#utility.yul\":5972:5992   */\n      sub\n        /* \"#utility.yul\":5967:5969   */\n      0x60\n        /* \"#utility.yul\":5956:5965   */\n      dup4\n        /* \"#utility.yul\":5952:5970   */\n      add\n        /* \"#utility.yul\":5945:5993   */\n      mstore\n        /* \"#utility.yul\":6010:6088   */\n      tag_168\n        /* \"#utility.yul\":6083:6087   */\n      dup2\n        /* \"#utility.yul\":6074:6080   */\n      dup5\n        /* \"#utility.yul\":6010:6088   */\n      tag_131\n      jump\t// in\n    tag_168:\n        /* \"#utility.yul\":6002:6088   */\n      swap1\n      pop\n        /* \"#utility.yul\":5511:6095   */\n      swap6\n      swap5\n      pop\n      pop\n      pop\n      pop\n      pop\n      jump\t// out\n        /* \"#utility.yul\":6101:6384   */\n    tag_104:\n      0x00\n        /* \"#utility.yul\":6167:6169   */\n      0x40\n        /* \"#utility.yul\":6161:6170   */\n      mload\n        /* \"#utility.yul\":6151:6170   */\n      swap1\n      pop\n        /* \"#utility.yul\":6209:6213   */\n      dup2\n        /* \"#utility.yul\":6201:6207   */\n      dup2\n        /* \"#utility.yul\":6197:6214   */\n      add\n        /* \"#utility.yul\":6316:6322   */\n      dup2\n        /* \"#utility.yul\":6304:6314   */\n      dup2\n        /* \"#utility.yul\":6301:6323   */\n      lt\n        /* \"#utility.yul\":6280:6298   */\n      0xffffffffffffffff\n        /* \"#utility.yul\":6268:6278   */\n      dup3\n        /* \"#utility.yul\":6265:6299   */\n      gt\n        /* \"#utility.yul\":6262:6324   */\n      or\n        /* \"#utility.yul\":6259:6261   */\n      iszero\n      tag_170\n      jumpi\n        /* \"#utility.yul\":6327:6345   */\n      tag_171\n      tag_172\n      jump\t// in\n    tag_171:\n        /* \"#utility.yul\":6259:6261   */\n    tag_170:\n        /* \"#utility.yul\":6367:6377   */\n      dup1\n        /* \"#utility.yul\":6363:6365   */\n      0x40\n        /* \"#utility.yul\":6356:6378   */\n      mstore\n        /* \"#utility.yul\":6141:6384   */\n      pop\n      swap2\n      swap1\n      pop\n      jump\t// out\n        /* \"#utility.yul\":6390:6722   */\n    tag_103:\n      0x00\n        /* \"#utility.yul\":6542:6560   */\n      0xffffffffffffffff\n        /* \"#utility.yul\":6534:6540   */\n      dup3\n        /* \"#utility.yul\":6531:6561   */\n      gt\n        /* \"#utility.yul\":6528:6530   */\n      iszero\n      tag_174\n      jumpi\n        /* \"#utility.yul\":6564:6582   */\n      tag_175\n      tag_172\n      jump\t// in\n    tag_175:\n        /* \"#utility.yul\":6528:6530   */\n    tag_174:\n        /* \"#utility.yul\":6649:6653   */\n      0x1f\n        /* \"#utility.yul\":6645:6654   */\n      not\n        /* \"#utility.yul\":6638:6642   */\n      0x1f\n        /* \"#utility.yul\":6630:6636   */\n      dup4\n        /* \"#utility.yul\":6626:6643   */\n      add\n        /* \"#utility.yul\":6622:6655   */\n      and\n        /* \"#utility.yul\":6614:6655   */\n      swap1\n      pop\n        /* \"#utility.yul\":6710:6714   */\n      0x20\n        /* \"#utility.yul\":6704:6708   */\n      dup2\n        /* \"#utility.yul\":6700:6715   */\n      add\n        /* \"#utility.yul\":6692:6715   */\n      swap1\n      pop\n        /* \"#utility.yul\":6457:6722   */\n      swap2\n      swap1\n      pop\n      jump\t// out\n        /* \"#utility.yul\":6728:6827   */\n    tag_134:\n      0x00\n        /* \"#utility.yul\":6814:6819   */\n      dup2\n        /* \"#utility.yul\":6808:6820   */\n      mload\n        /* \"#utility.yul\":6798:6820   */\n      swap1\n      pop\n        /* \"#utility.yul\":6787:6827   */\n      swap2\n      swap1\n      pop\n      jump\t// out\n        /* \"#utility.yul\":6833:7002   */\n    tag_136:\n      0x00\n        /* \"#utility.yul\":6951:6957   */\n      dup3\n        /* \"#utility.yul\":6946:6949   */\n      dup3\n        /* \"#utility.yul\":6939:6958   */\n      mstore\n        /* \"#utility.yul\":6991:6995   */\n      0x20\n        /* \"#utility.yul\":6986:6989   */\n      dup3\n        /* \"#utility.yul\":6982:6996   */\n      add\n        /* \"#utility.yul\":6967:6996   */\n      swap1\n      pop\n        /* \"#utility.yul\":6929:7002   */\n      swap3\n      swap2\n      pop\n      pop\n      jump\t// out\n        /* \"#utility.yul\":7008:7104   */\n    tag_130:\n      0x00\n        /* \"#utility.yul\":7074:7098   */\n      tag_179\n        /* \"#utility.yul\":7092:7097   */\n      dup3\n        /* \"#utility.yul\":7074:7098   */\n      tag_180\n      jump\t// in\n    tag_179:\n        /* \"#utility.yul\":7063:7098   */\n      swap1\n      pop\n        /* \"#utility.yul\":7053:7104   */\n      swap2\n      swap1\n      pop\n      jump\t// out\n        /* \"#utility.yul\":7110:7236   */\n    tag_180:\n      0x00\n        /* \"#utility.yul\":7187:7229   */\n      0xffffffffffffffffffffffffffffffffffffffff\n        /* \"#utility.yul\":7180:7185   */\n      dup3\n        /* \"#utility.yul\":7176:7230   */\n      and\n        /* \"#utility.yul\":7165:7230   */\n      swap1\n      pop\n        /* \"#utility.yul\":7155:7236   */\n      swap2\n      swap1\n      pop\n      jump\t// out\n        /* \"#utility.yul\":7242:7319   */\n    tag_153:\n      0x00\n        /* \"#utility.yul\":7308:7313   */\n      dup2\n        /* \"#utility.yul\":7297:7313   */\n      swap1\n      pop\n        /* \"#utility.yul\":7287:7319   */\n      swap2\n      swap1\n      pop\n      jump\t// out\n        /* \"#utility.yul\":7325:7479   */\n    tag_107:\n        /* \"#utility.yul\":7409:7415   */\n      dup3\n        /* \"#utility.yul\":7404:7407   */\n      dup2\n        /* \"#utility.yul\":7399:7402   */\n      dup4\n        /* \"#utility.yul\":7386:7416   */\n      calldatacopy\n        /* \"#utility.yul\":7471:7472   */\n      0x00\n        /* \"#utility.yul\":7462:7468   */\n      dup4\n        /* \"#utility.yul\":7457:7460   */\n      dup4\n        /* \"#utility.yul\":7453:7469   */\n      add\n        /* \"#utility.yul\":7446:7473   */\n      mstore\n        /* \"#utility.yul\":7376:7479   */\n      pop\n      pop\n      pop\n      jump\t// out\n        /* \"#utility.yul\":7485:7792   */\n    tag_138:\n        /* \"#utility.yul\":7553:7554   */\n      0x00\n        /* \"#utility.yul\":7563:7676   */\n    tag_185:\n        /* \"#utility.yul\":7577:7583   */\n      dup4\n        /* \"#utility.yul\":7574:7575   */\n      dup2\n        /* \"#utility.yul\":7571:7584   */\n      lt\n        /* \"#utility.yul\":7563:7676   */\n      iszero\n      tag_187\n      jumpi\n        /* \"#utility.yul\":7662:7663   */\n      dup1\n        /* \"#utility.yul\":7657:7660   */\n      dup3\n        /* \"#utility.yul\":7653:7664   */\n      add\n        /* \"#utility.yul\":7647:7665   */\n      mload\n        /* \"#utility.yul\":7643:7644   */\n      dup2\n        /* \"#utility.yul\":7638:7641   */\n      dup5\n        /* \"#utility.yul\":7634:7645   */\n      add\n        /* \"#utility.yul\":7627:7666   */\n      mstore\n        /* \"#utility.yul\":7599:7601   */\n      0x20\n        /* \"#utility.yul\":7596:7597   */\n      dup2\n        /* \"#utility.yul\":7592:7602   */\n      add\n        /* \"#utility.yul\":7587:7602   */\n      swap1\n      pop\n        /* \"#utility.yul\":7563:7676   */\n      jump(tag_185)\n    tag_187:\n        /* \"#utility.yul\":7694:7700   */\n      dup4\n        /* \"#utility.yul\":7691:7692   */\n      dup2\n        /* \"#utility.yul\":7688:7701   */\n      gt\n        /* \"#utility.yul\":7685:7687   */\n      iszero\n      tag_188\n      jumpi\n        /* \"#utility.yul\":7774:7775   */\n      0x00\n        /* \"#utility.yul\":7765:7771   */\n      dup5\n        /* \"#utility.yul\":7760:7763   */\n      dup5\n        /* \"#utility.yul\":7756:7772   */\n      add\n        /* \"#utility.yul\":7749:7776   */\n      mstore\n        /* \"#utility.yul\":7685:7687   */\n    tag_188:\n        /* \"#utility.yul\":7534:7792   */\n      pop\n      pop\n      pop\n      pop\n      jump\t// out\n        /* \"#utility.yul\":7798:8118   */\n    tag_41:\n      0x00\n        /* \"#utility.yul\":7879:7880   */\n      0x02\n        /* \"#utility.yul\":7873:7877   */\n      dup3\n        /* \"#utility.yul\":7869:7881   */\n      div\n        /* \"#utility.yul\":7859:7881   */\n      swap1\n      pop\n        /* \"#utility.yul\":7926:7927   */\n      0x01\n        /* \"#utility.yul\":7920:7924   */\n      dup3\n        /* \"#utility.yul\":7916:7928   */\n      and\n        /* \"#utility.yul\":7947:7965   */\n      dup1\n        /* \"#utility.yul\":7937:7939   */\n      tag_190\n      jumpi\n        /* \"#utility.yul\":8003:8007   */\n      0x7f\n        /* \"#utility.yul\":7995:8001   */\n      dup3\n        /* \"#utility.yul\":7991:8008   */\n      and\n        /* \"#utility.yul\":7981:8008   */\n      swap2\n      pop\n        /* \"#utility.yul\":7937:7939   */\n    tag_190:\n        /* \"#utility.yul\":8065:8067   */\n      0x20\n        /* \"#utility.yul\":8057:8063   */\n      dup3\n        /* \"#utility.yul\":8054:8068   */\n      lt\n        /* \"#utility.yul\":8034:8052   */\n      dup2\n        /* \"#utility.yul\":8031:8069   */\n      eq\n        /* \"#utility.yul\":8028:8030   */\n      iszero\n      tag_191\n      jumpi\n        /* \"#utility.yul\":8084:8102   */\n      tag_192\n      tag_193\n      jump\t// in\n    tag_192:\n        /* \"#utility.yul\":8028:8030   */\n    tag_191:\n        /* \"#utility.yul\":7849:8118   */\n      pop\n      swap2\n      swap1\n      pop\n      jump\t// out\n        /* \"#utility.yul\":8124:8304   */\n    tag_193:\n        /* \"#utility.yul\":8172:8249   */\n      0x4e487b7100000000000000000000000000000000000000000000000000000000\n        /* \"#utility.yul\":8169:8170   */\n      0x00\n        /* \"#utility.yul\":8162:8250   */\n      mstore\n        /* \"#utility.yul\":8269:8273   */\n      0x22\n        /* \"#utility.yul\":8266:8267   */\n      0x04\n        /* \"#utility.yul\":8259:8274   */\n      mstore\n        /* \"#utility.yul\":8293:8297   */\n      0x24\n        /* \"#utility.yul\":8290:8291   */\n      0x00\n        /* \"#utility.yul\":8283:8298   */\n      revert\n        /* \"#utility.yul\":8310:8490   */\n    tag_172:\n        /* \"#utility.yul\":8358:8435   */\n      0x4e487b7100000000000000000000000000000000000000000000000000000000\n        /* \"#utility.yul\":8355:8356   */\n      0x00\n        /* \"#utility.yul\":8348:8436   */\n      mstore\n        /* \"#utility.yul\":8455:8459   */\n      0x41\n        /* \"#utility.yul\":8452:8453   */\n      0x04\n        /* \"#utility.yul\":8445:8460   */\n      mstore\n        /* \"#utility.yul\":8479:8483   */\n      0x24\n        /* \"#utility.yul\":8476:8477   */\n      0x00\n        /* \"#utility.yul\":8469:8484   */\n      revert\n        /* \"#utility.yul\":8496:8598   */\n    tag_140:\n      0x00\n        /* \"#utility.yul\":8588:8590   */\n      0x1f\n        /* \"#utility.yul\":8584:8591   */\n      not\n        /* \"#utility.yul\":8579:8581   */\n      0x1f\n        /* \"#utility.yul\":8572:8577   */\n      dup4\n        /* \"#utility.yul\":8568:8582   */\n      add\n        /* \"#utility.yul\":8564:8592   */\n      and\n        /* \"#utility.yul\":8554:8592   */\n      swap1\n      pop\n        /* \"#utility.yul\":8544:8598   */\n      swap2\n      swap1\n      pop\n      jump\t// out\n        /* \"#utility.yul\":8604:8726   */\n    tag_115:\n        /* \"#utility.yul\":8677:8701   */\n      tag_198\n        /* \"#utility.yul\":8695:8700   */\n      dup2\n        /* \"#utility.yul\":8677:8701   */\n      tag_153\n      jump\t// in\n    tag_198:\n        /* \"#utility.yul\":8670:8675   */\n      dup2\n        /* \"#utility.yul\":8667:8702   */\n      eq\n        /* \"#utility.yul\":8657:8659   */\n      tag_199\n      jumpi\n        /* \"#utility.yul\":8716:8717   */\n      0x00\n        /* \"#utility.yul\":8713:8714   */\n      dup1\n        /* \"#utility.yul\":8706:8718   */\n      revert\n        /* \"#utility.yul\":8657:8659   */\n    tag_199:\n        /* \"#utility.yul\":8647:8726   */\n      pop\n      jump\t// out\n\n    auxdata: 0xa2646970667358221220a7469e1b1bc2aee5ce869aef7fba87985747425dc27dbbf93b45c267aef1fb4564736f6c63430008000033\n}\n",
				"bytecode": {
					"linkReferences": {},
					"object": "608060405234801561001057600080fd5b5033600160006101000a81548173ffffffffffffffffffffffffffffffffffffffff021916908373ffffffffffffffffffffffffffffffffffffffff160217905550610d79806100616000396000f3fe608060405234801561001057600080fd5b50600436106100625760003560e01c80630178fe3f146100675780637355a4241461009a5780637d4cb964146100b85780638da5cb5b146100d6578063c8592e0b146100f4578063d4001ef214610127575b600080fd5b610081600480360381019061007c9190610960565b610143565b6040516100919493929190610b36565b60405180910390f35b6100a26103cb565b6040516100af9190610b1b565b60405180910390f35b6100c06103d7565b6040516100cd9190610b1b565b60405180910390f35b6100de6103dc565b6040516100eb9190610aa0565b60405180910390f35b61010e60048036038101906101099190610960565b610402565b60405161011e9493929190610b36565b60405180910390f35b610141600480360381019061013c91906108c9565b6105da565b005b600060608060606000805490508510610191576040517f08c379a000000000000000000000000000000000000000000000000000000000815260040161018890610abb565b60405180910390fd5b60008086815481106101cc577f4e487b7100000000000000000000000000000000000000000000000000000000600052603260045260246000fd5b9060005260206000209060040201604051806080016040529081600082015481526020016001820180546101ff90610c8b565b80601f016020809104026020016040519081016040528092919081815260200182805461022b90610c8b565b80156102785780601f1061024d57610100808354040283529160200191610278565b820191906000526020600020905b81548152906001019060200180831161025b57829003601f168201915b5050505050815260200160028201805461029190610c8b565b80601f01602080910402602001604051908101604052809291908181526020018280546102bd90610c8b565b801561030a5780601f106102df5761010080835404028352916020019161030a565b820191906000526020600020905b8154815290600101906020018083116102ed57829003601f168201915b5050505050815260200160038201805461032390610c8b565b80601f016020809104026020016040519081016040528092919081815260200182805461034f90610c8b565b801561039c5780601f106103715761010080835404028352916020019161039c565b820191906000526020600020905b81548152906001019060200180831161037f57829003601f168201915b505050505081525050905080600001518160200151826040015183606001519450945094509450509193509193565b60008080549050905090565b606481565b600160009054906101000a900473ffffffffffffffffffffffffffffffffffffffff1681565b6000818154811061041257600080fd5b906000526020600020906004020160009150905080600001549080600101805461043b90610c8b565b80601f016020809104026020016040519081016040528092919081815260200182805461046790610c8b565b80156104b45780601f10610489576101008083540402835291602001916104b4565b820191906000526020600020905b81548152906001019060200180831161049757829003601f168201915b5050505050908060020180546104c990610c8b565b80601f01602080910402602001604051908101604052809291908181526020018280546104f590610c8b565b80156105425780601f1061051757610100808354040283529160200191610542565b820191906000526020600020905b81548152906001019060200180831161052557829003601f168201915b50505050509080600301805461055790610c8b565b80601f016020809104026020016040519081016040528092919081815260200182805461058390610c8b565b80156105d05780601f106105a5576101008083540402835291602001916105d0565b820191906000526020600020905b8154815290600101906020018083116105b357829003601f168201915b5050505050905084565b600160009054906101000a900473ffffffffffffffffffffffffffffffffffffffff1673ffffffffffffffffffffffffffffffffffffffff163373ffffffffffffffffffffffffffffffffffffffff161461066a576040517f08c379a000000000000000000000000000000000000000000000000000000000815260040161066190610afb565b60405180910390fd5b6064600080549050106106b2576040517f08c379a00000000000000000000000000000000000000000000000000000000081526004016106a990610adb565b60405180910390fd5b6000604051806080016040528042815260200185815260200184815260200183815250905060008190806001815401808255809150506001900390600052602060002090600402016000909190919091506000820151816000015560208201518160010190805190602001906107299291906107a9565b5060408201518160020190805190602001906107469291906107a9565b5060608201518160030190805190602001906107639291906107a9565b5050507fc27557253cfa793c3de4beda3cf3aad78548fbff6f148459c5d4e26e97d6e2584285858560405161079b9493929190610b36565b60405180910390a150505050565b8280546107b590610c8b565b90600052602060002090601f0160209004810192826107d7576000855561081e565b82601f106107f057805160ff191683800117855561081e565b8280016001018555821561081e579182015b8281111561081d578251825591602001919060010190610802565b5b50905061082b919061082f565b5090565b5b80821115610848576000816000905550600101610830565b5090565b600061085f61085a84610bc1565b610b90565b90508281526020810184848401111561087757600080fd5b610882848285610c49565b509392505050565b600082601f83011261089b57600080fd5b81356108ab84826020860161084c565b91505092915050565b6000813590506108c381610d2c565b92915050565b6000806000606084860312156108de57600080fd5b600084013567ffffffffffffffff8111156108f857600080fd5b6109048682870161088a565b935050602084013567ffffffffffffffff81111561092157600080fd5b61092d8682870161088a565b925050604084013567ffffffffffffffff81111561094a57600080fd5b6109568682870161088a565b9150509250925092565b60006020828403121561097257600080fd5b6000610980848285016108b4565b91505092915050565b61099281610c0d565b82525050565b60006109a382610bf1565b6109ad8185610bfc565b93506109bd818560208601610c58565b6109c681610d1b565b840191505092915050565b60006109de600d83610bfc565b91507f496e76616c696420696e646578000000000000000000000000000000000000006000830152602082019050919050565b6000610a1e601583610bfc565b91507f53746f72616765206c696d6974207265616368656400000000000000000000006000830152602082019050919050565b6000610a5e600e83610bfc565b91507f4e6f7420617574686f72697a65640000000000000000000000000000000000006000830152602082019050919050565b610a9a81610c3f565b82525050565b6000602082019050610ab56000830184610989565b92915050565b60006020820190508181036000830152610ad4816109d1565b9050919050565b60006020820190508181036000830152610af481610a11565b9050919050565b60006020820190508181036000830152610b1481610a51565b9050919050565b6000602082019050610b306000830184610a91565b92915050565b6000608082019050610b4b6000830187610a91565b8181036020830152610b5d8186610998565b90508181036040830152610b718185610998565b90508181036060830152610b858184610998565b905095945050505050565b6000604051905081810181811067ffffffffffffffff82111715610bb757610bb6610cec565b5b8060405250919050565b600067ffffffffffffffff821115610bdc57610bdb610cec565b5b601f19601f8301169050602081019050919050565b600081519050919050565b600082825260208201905092915050565b6000610c1882610c1f565b9050919050565b600073ffffffffffffffffffffffffffffffffffffffff82169050919050565b6000819050919050565b82818337600083830152505050565b60005b83811015610c76578082015181840152602081019050610c5b565b83811115610c85576000848401525b50505050565b60006002820490506001821680610ca357607f821691505b60208210811415610cb757610cb6610cbd565b5b50919050565b7f4e487b7100000000000000000000000000000000000000000000000000000000600052602260045260246000fd5b7f4e487b7100000000000000000000000000000000000000000000000000000000600052604160045260246000fd5b6000601f19601f8301169050919050565b610d3581610c3f565b8114610d4057600080fd5b5056fea2646970667358221220a7469e1b1bc2aee5ce869aef7fba87985747425dc27dbbf93b45c267aef1fb4564736f6c63430008000033",
					"opcodes": "PUSH1 0x80 PUSH1 0x40 MSTORE CALLVALUE DUP1 ISZERO PUSH2 0x10 JUMPI PUSH1 0x0 DUP1 REVERT JUMPDEST POP CALLER PUSH1 0x1 PUSH1 0x0 PUSH2 0x100 EXP DUP2 SLOAD DUP2 PUSH20 0xFFFFFFFFFFFFFFFFFFFFFFFFFFFFFFFFFFFFFFFF MUL NOT AND SWAP1 DUP4 PUSH20 0xFFFFFFFFFFFFFFFFFFFFFFFFFFFFFFFFFFFFFFFF AND MUL OR SWAP1 SSTORE POP PUSH2 0xD79 DUP1 PUSH2 0x61 PUSH1 0x0 CODECOPY PUSH1 0x0 RETURN INVALID PUSH1 0x80 PUSH1 0x40 MSTORE CALLVALUE DUP1 ISZERO PUSH2 0x10 JUMPI PUSH1 0x0 DUP1 REVERT JUMPDEST POP PUSH1 0x4 CALLDATASIZE LT PUSH2 0x62 JUMPI PUSH1 0x0 CALLDATALOAD PUSH1 0xE0 SHR DUP1 PUSH4 0x178FE3F EQ PUSH2 0x67 JUMPI DUP1 PUSH4 0x7355A424 EQ PUSH2 0x9A JUMPI DUP1 PUSH4 0x7D4CB964 EQ PUSH2 0xB8 JUMPI DUP1 PUSH4 0x8DA5CB5B EQ PUSH2 0xD6 JUMPI DUP1 PUSH4 0xC8592E0B EQ PUSH2 0xF4 JUMPI DUP1 PUSH4 0xD4001EF2 EQ PUSH2 0x127 JUMPI JUMPDEST PUSH1 0x0 DUP1 REVERT JUMPDEST PUSH2 0x81 PUSH1 0x4 DUP1 CALLDATASIZE SUB DUP2 ADD SWAP1 PUSH2 0x7C SWAP2 SWAP1 PUSH2 0x960 JUMP JUMPDEST PUSH2 0x143 JUMP JUMPDEST PUSH1 0x40 MLOAD PUSH2 0x91 SWAP5 SWAP4 SWAP3 SWAP2 SWAP1 PUSH2 0xB36 JUMP JUMPDEST PUSH1 0x40 MLOAD DUP1 SWAP2 SUB SWAP1 RETURN JUMPDEST PUSH2 0xA2 PUSH2 0x3CB JUMP JUMPDEST PUSH1 0x40 MLOAD PUSH2 0xAF SWAP2 SWAP1 PUSH2 0xB1B JUMP JUMPDEST PUSH1 0x40 MLOAD DUP1 SWAP2 SUB SWAP1 RETURN JUMPDEST PUSH2 0xC0 PUSH2 0x3D7 JUMP JUMPDEST PUSH1 0x40 MLOAD PUSH2 0xCD SWAP2 SWAP1 PUSH2 0xB1B JUMP JUMPDEST PUSH1 0x40 MLOAD DUP1 SWAP2 SUB SWAP1 RETURN JUMPDEST PUSH2 0xDE PUSH2 0x3DC JUMP JUMPDEST PUSH1 0x40 MLOAD PUSH2 0xEB SWAP2 SWAP1 PUSH2 0xAA0 JUMP JUMPDEST PUSH1 0x40 MLOAD DUP1 SWAP2 SUB SWAP1 RETURN JUMPDEST PUSH2 0x10E PUSH1 0x4 DUP1 CALLDATASIZE SUB DUP2 ADD SWAP1 PUSH2 0x109 SWAP2 SWAP1 PUSH2 0x960 JUMP JUMPDEST PUSH2 0x402 JUMP JUMPDEST PUSH1 0x40 MLOAD PUSH2 0x11E SWAP5 SWAP4 SWAP3 SWAP2 SWAP1 PUSH2 0xB36 JUMP JUMPDEST PUSH1 0x40 MLOAD DUP1 SWAP2 SUB SWAP1 RETURN JUMPDEST PUSH2 0x141 PUSH1 0x4 DUP1 CALLDATASIZE SUB DUP2 ADD SWAP1 PUSH2 0x13C SWAP2 SWAP1 PUSH2 0x8C9 JUMP JUMPDEST PUSH2 0x5DA JUMP JUMPDEST STOP JUMPDEST PUSH1 0x0 PUSH1 0x60 DUP1 PUSH1 0x60 PUSH1 0x0 DUP1 SLOAD SWAP1 POP DUP6 LT PUSH2 0x191 JUMPI PUSH1 0x40 MLOAD PUSH32 0x8C379A000000000000000000000000000000000000000000000000000000000 DUP2 MSTORE PUSH1 0x4 ADD PUSH2 0x188 SWAP1 PUSH2 0xABB JUMP JUMPDEST PUSH1 0x40 MLOAD DUP1 SWAP2 SUB SWAP1 REVERT JUMPDEST PUSH1 0x0 DUP1 DUP7 DUP2 SLOAD DUP2 LT PUSH2 0x1CC JUMPI PUSH32 0x4E487B7100000000000000000000000000000000000000000000000000000000 PUSH1 0x0 MSTORE PUSH1 0x32 PUSH1 0x4 MSTORE PUSH1 0x24 PUSH1 0x0 REVERT JUMPDEST SWAP1 PUSH1 0x0 MSTORE PUSH1 0x20 PUSH1 0x0 KECCAK256 SWAP1 PUSH1 0x4 MUL ADD PUSH1 0x40 MLOAD DUP1 PUSH1 0x80 ADD PUSH1 0x40 MSTORE SWAP1 DUP2 PUSH1 0x0 DUP3 ADD SLOAD DUP2 MSTORE PUSH1 0x20 ADD PUSH1 0x1 DUP3 ADD DUP1 SLOAD PUSH2 0x1FF SWAP1 PUSH2 0xC8B JUMP JUMPDEST DUP1 PUSH1 0x1F ADD PUSH1 0x20 DUP1 SWAP2 DIV MUL PUSH1 0x20 ADD PUSH1 0x40 MLOAD SWAP1 DUP2 ADD PUSH1 0x40 MSTORE DUP1 SWAP3 SWAP2 SWAP1 DUP2 DUP2 MSTORE PUSH1 0x20 ADD DUP3 DUP1 SLOAD PUSH2 0x22B SWAP1 PUSH2 0xC8B JUMP JUMPDEST DUP1 ISZERO PUSH2 0x278 JUMPI DUP1 PUSH1 0x1F LT PUSH2 0x24D JUMPI PUSH2 0x100 DUP1 DUP4 SLOAD DIV MUL DUP4 MSTORE SWAP2 PUSH1 0x20 ADD SWAP2 PUSH2 0x278 JUMP JUMPDEST DUP3 ADD SWAP2 SWAP1 PUSH1 0x0 MSTORE PUSH1 0x20 PUSH1 0x0 KECCAK256 SWAP1 JUMPDEST DUP2 SLOAD DUP2 MSTORE SWAP1 PUSH1 0x1 ADD SWAP1 PUSH1 0x20 ADD DUP1 DUP4 GT PUSH2 0x25B JUMPI DUP3 SWAP1 SUB PUSH1 0x1F AND DUP3 ADD SWAP2 JUMPDEST POP POP POP POP POP DUP2 MSTORE PUSH1 0x20 ADD PUSH1 0x2 DUP3 ADD DUP1 SLOAD PUSH2 0x291 SWAP1 PUSH2 0xC8B JUMP JUMPDEST DUP1 PUSH1 0x1F ADD PUSH1 0x20 DUP1 SWAP2 DIV MUL PUSH1 0x20 ADD PUSH1 0x40 MLOAD SWAP1 DUP2 ADD PUSH1 0x40 MSTORE DUP1 SWAP3 SWAP2 SWAP1 DUP2 DUP2 MSTORE PUSH1 0x20 ADD DUP3 DUP1 SLOAD PUSH2 0x2BD SWAP1 PUSH2 0xC8B JUMP JUMPDEST DUP1 ISZERO PUSH2 0x30A JUMPI DUP1 PUSH1 0x1F LT PUSH2 0x2DF JUMPI PUSH2 0x100 DUP1 DUP4 SLOAD DIV MUL DUP4 MSTORE SWAP2 PUSH1 0x20 ADD SWAP2 PUSH2 0x30A JUMP JUMPDEST DUP3 ADD SWAP2 SWAP1 PUSH1 0x0 MSTORE PUSH1 0x20 PUSH1 0x0 KECCAK256 SWAP1 JUMPDEST DUP2 SLOAD DUP2 MSTORE SWAP1 PUSH1 0x1 ADD SWAP1 PUSH1 0x20 ADD DUP1 DUP4 GT PUSH2 0x2ED JUMPI DUP3 SWAP1 SUB PUSH1 0x1F AND DUP3 ADD SWAP2 JUMPDEST POP POP POP POP POP DUP2 MSTORE PUSH1 0x20 ADD PUSH1 0x3 DUP3 ADD DUP1 SLOAD PUSH2 0x323 SWAP1 PUSH2 0xC8B JUMP JUMPDEST DUP1 PUSH1 0x1F ADD PUSH1 0x20 DUP1 SWAP2 DIV MUL PUSH1 0x20 ADD PUSH1 0x40 MLOAD SWAP1 DUP2 ADD PUSH1 0x40 MSTORE DUP1 SWAP3 SWAP2 SWAP1 DUP2 DUP2 MSTORE PUSH1 0x20 ADD DUP3 DUP1 SLOAD PUSH2 0x34F SWAP1 PUSH2 0xC8B JUMP JUMPDEST DUP1 ISZERO PUSH2 0x39C JUMPI DUP1 PUSH1 0x1F LT PUSH2 0x371 JUMPI PUSH2 0x100 DUP1 DUP4 SLOAD DIV MUL DUP4 MSTORE SWAP2 PUSH1 0x20 ADD SWAP2 PUSH2 0x39C JUMP JUMPDEST DUP3 ADD SWAP2 SWAP1 PUSH1 0x0 MSTORE PUSH1 0x20 PUSH1 0x0 KECCAK256 SWAP1 JUMPDEST DUP2 SLOAD DUP2 MSTORE SWAP1 PUSH1 0x1 ADD SWAP1 PUSH1 0x20 ADD DUP1 DUP4 GT PUSH2 0x37F JUMPI DUP3 SWAP1 SUB PUSH1 0x1F AND DUP3 ADD SWAP2 JUMPDEST POP POP POP POP POP DUP2 MSTORE POP POP SWAP1 POP DUP1 PUSH1 0x0 ADD MLOAD DUP2 PUSH1 0x20 ADD MLOAD DUP3 PUSH1 0x40 ADD MLOAD DUP4 PUSH1 0x60 ADD MLOAD SWAP5 POP SWAP5 POP SWAP5 POP SWAP5 POP POP SWAP2 SWAP4 POP SWAP2 SWAP4 JUMP JUMPDEST PUSH1 0x0 DUP1 DUP1 SLOAD SWAP1 POP SWAP1 POP SWAP1 JUMP JUMPDEST PUSH1 0x64 DUP2 JUMP JUMPDEST PUSH1 0x1 PUSH1 0x0 SWAP1 SLOAD SWAP1 PUSH2 0x100 EXP SWAP1 DIV PUSH20 0xFFFFFFFFFFFFFFFFFFFFFFFFFFFFFFFFFFFFFFFF AND DUP2 JUMP JUMPDEST PUSH1 0x0 DUP2 DUP2 SLOAD DUP2 LT PUSH2 0x412 JUMPI PUSH1 0x0 DUP1 REVERT JUMPDEST SWAP1 PUSH1 0x0 MSTORE PUSH1 0x20 PUSH1 0x0 KECCAK256 SWAP1 PUSH1 0x4 MUL ADD PUSH1 0x0 SWAP2 POP SWAP1 POP DUP1 PUSH1 0x0 ADD SLOAD SWAP1 DUP1 PUSH1 0x1 ADD DUP1 SLOAD PUSH2 0x43B SWAP1 PUSH2 0xC8B JUMP JUMPDEST DUP1 PUSH1 0x1F ADD PUSH1 0x20 DUP1 SWAP2 DIV MUL PUSH1 0x20 ADD PUSH1 0x40 MLOAD SWAP1 DUP2 ADD PUSH1 0x40 MSTORE DUP1 SWAP3 SWAP2 SWAP1 DUP2 DUP2 MSTORE PUSH1 0x20 ADD DUP3 DUP1 SLOAD PUSH2 0x467 SWAP1 PUSH2 0xC8B JUMP JUMPDEST DUP1 ISZERO PUSH2 0x4B4 JUMPI DUP1 PUSH1 0x1F LT PUSH2 0x489 JUMPI PUSH2 0x100 DUP1 DUP4 SLOAD DIV MUL DUP4 MSTORE SWAP2 PUSH1 0x20 ADD SWAP2 PUSH2 0x4B4 JUMP JUMPDEST DUP3 ADD SWAP2 SWAP1 PUSH1 0x0 MSTORE PUSH1 0x20 PUSH1 0x0 KECCAK256 SWAP1 JUMPDEST DUP2 SLOAD DUP2 MSTORE SWAP1 PUSH1 0x1 ADD SWAP1 PUSH1 0x20 ADD DUP1 DUP4 GT PUSH2 0x497 JUMPI DUP3 SWAP1 SUB PUSH1 0x1F AND DUP3 ADD SWAP2 JUMPDEST POP POP POP POP POP SWAP1 DUP1 PUSH1 0x2 ADD DUP1 SLOAD PUSH2 0x4C9 SWAP1 PUSH2 0xC8B JUMP JUMPDEST DUP1 PUSH1 0x1F ADD PUSH1 0x20 DUP1 SWAP2 DIV MUL PUSH1 0x20 ADD PUSH1 0x40 MLOAD SWAP1 DUP2 ADD PUSH1 0x40 MSTORE DUP1 SWAP3 SWAP2 SWAP1 DUP2 DUP2 MSTORE PUSH1 0x20 ADD DUP3 DUP1 SLOAD PUSH2 0x4F5 SWAP1 PUSH2 0xC8B JUMP JUMPDEST DUP1 ISZERO PUSH2 0x542 JUMPI DUP1 PUSH1 0x1F LT PUSH2 0x517 JUMPI PUSH2 0x100 DUP1 DUP4 SLOAD DIV MUL DUP4 MSTORE SWAP2 PUSH1 0x20 ADD SWAP2 PUSH2 0x542 JUMP JUMPDEST DUP3 ADD SWAP2 SWAP1 PUSH1 0x0 MSTORE PUSH1 0x20 PUSH1 0x0 KECCAK256 SWAP1 JUMPDEST DUP2 SLOAD DUP2 MSTORE SWAP1 PUSH1 0x1 ADD SWAP1 PUSH1 0x20 ADD DUP1 DUP4 GT PUSH2 0x525 JUMPI DUP3 SWAP1 SUB PUSH1 0x1F AND DUP3 ADD SWAP2 JUMPDEST POP POP POP POP POP SWAP1 DUP1 PUSH1 0x3 ADD DUP1 SLOAD PUSH2 0x557 SWAP1 PUSH2 0xC8B JUMP JUMPDEST DUP1 PUSH1 0x1F ADD PUSH1 0x20 DUP1 SWAP2 DIV MUL PUSH1 0x20 ADD PUSH1 0x40 MLOAD SWAP1 DUP2 ADD PUSH1 0x40 MSTORE DUP1 SWAP3 SWAP2 SWAP1 DUP2 DUP2 MSTORE PUSH1 0x20 ADD DUP3 DUP1 SLOAD PUSH2 0x583 SWAP1 PUSH2 0xC8B JUMP JUMPDEST DUP1 ISZERO PUSH2 0x5D0 JUMPI DUP1 PUSH1 0x1F LT PUSH2 0x5A5 JUMPI PUSH2 0x100 DUP1 DUP4 SLOAD DIV MUL DUP4 MSTORE SWAP2 PUSH1 0x20 ADD SWAP2 PUSH2 0x5D0 JUMP JUMPDEST DUP3 ADD SWAP2 SWAP1 PUSH1 0x0 MSTORE PUSH1 0x20 PUSH1 0x0 KECCAK256 SWAP1 JUMPDEST DUP2 SLOAD DUP2 MSTORE SWAP1 PUSH1 0x1 ADD SWAP1 PUSH1 0x20 ADD DUP1 DUP4 GT PUSH2 0x5B3 JUMPI DUP3 SWAP1 SUB PUSH1 0x1F AND DUP3 ADD SWAP2 JUMPDEST POP POP POP POP POP SWAP1 POP DUP5 JUMP JUMPDEST PUSH1 0x1 PUSH1 0x0 SWAP1 SLOAD SWAP1 PUSH2 0x100 EXP SWAP1 DIV PUSH20 0xFFFFFFFFFFFFFFFFFFFFFFFFFFFFFFFFFFFFFFFF AND PUSH20 0xFFFFFFFFFFFFFFFFFFFFFFFFFFFFFFFFFFFFFFFF AND CALLER PUSH20 0xFFFFFFFFFFFFFFFFFFFFFFFFFFFFFFFFFFFFFFFF AND EQ PUSH2 0x66A JUMPI PUSH1 0x40 MLOAD PUSH32 0x8C379A000000000000000000000000000000000000000000000000000000000 DUP2 MSTORE PUSH1 0x4 ADD PUSH2 0x661 SWAP1 PUSH2 0xAFB JUMP JUMPDEST PUSH1 0x40 MLOAD DUP1 SWAP2 SUB SWAP1 REVERT JUMPDEST PUSH1 0x64 PUSH1 0x0 DUP1 SLOAD SWAP1 POP LT PUSH2 0x6B2 JUMPI PUSH1 0x40 MLOAD PUSH32 0x8C379A000000000000000000000000000000000000000000000000000000000 DUP2 MSTORE PUSH1 0x4 ADD PUSH2 0x6A9 SWAP1 PUSH2 0xADB JUMP JUMPDEST PUSH1 0x40 MLOAD DUP1 SWAP2 SUB SWAP1 REVERT JUMPDEST PUSH1 0x0 PUSH1 0x40 MLOAD DUP1 PUSH1 0x80 ADD PUSH1 0x40 MSTORE DUP1 TIMESTAMP DUP2 MSTORE PUSH1 0x20 ADD DUP6 DUP2 MSTORE PUSH1 0x20 ADD DUP5 DUP2 MSTORE PUSH1 0x20 ADD DUP4 DUP2 MSTORE POP SWAP1 POP PUSH1 0x0 DUP2 SWAP1 DUP1 PUSH1 0x1 DUP2 SLOAD ADD DUP1 DUP3 SSTORE DUP1 SWAP2 POP POP PUSH1 0x1 SWAP1 SUB SWAP1 PUSH1 0x0 MSTORE PUSH1 0x20 PUSH1 0x0 KECCAK256 SWAP1 PUSH1 0x4 MUL ADD PUSH1 0x0 SWAP1 SWAP2 SWAP1 SWAP2 SWAP1 SWAP2 POP PUSH1 0x0 DUP3 ADD MLOAD DUP2 PUSH1 0x0 ADD SSTORE PUSH1 0x20 DUP3 ADD MLOAD DUP2 PUSH1 0x1 ADD SWAP1 DUP1 MLOAD SWAP1 PUSH1 0x20 ADD SWAP1 PUSH2 0x729 SWAP3 SWAP2 SWAP1 PUSH2 0x7A9 JUMP JUMPDEST POP PUSH1 0x40 DUP3 ADD MLOAD DUP2 PUSH1 0x2 ADD SWAP1 DUP1 MLOAD SWAP1 PUSH1 0x20 ADD SWAP1 PUSH2 0x746 SWAP3 SWAP2 SWAP1 PUSH2 0x7A9 JUMP JUMPDEST POP PUSH1 0x60 DUP3 ADD MLOAD DUP2 PUSH1 0x3 ADD SWAP1 DUP1 MLOAD SWAP1 PUSH1 0x20 ADD SWAP1 PUSH2 0x763 SWAP3 SWAP2 SWAP1 PUSH2 0x7A9 JUMP JUMPDEST POP POP POP PUSH32 0xC27557253CFA793C3DE4BEDA3CF3AAD78548FBFF6F148459C5D4E26E97D6E258 TIMESTAMP DUP6 DUP6 DUP6 PUSH1 0x40 MLOAD PUSH2 0x79B SWAP5 SWAP4 SWAP3 SWAP2 SWAP1 PUSH2 0xB36 JUMP JUMPDEST PUSH1 0x40 MLOAD DUP1 SWAP2 SUB SWAP1 LOG1 POP POP POP POP JUMP JUMPDEST DUP3 DUP1 SLOAD PUSH2 0x7B5 SWAP1 PUSH2 0xC8B JUMP JUMPDEST SWAP1 PUSH1 0x0 MSTORE PUSH1 0x20 PUSH1 0x0 KECCAK256 SWAP1 PUSH1 0x1F ADD PUSH1 0x20 SWAP1 DIV DUP2 ADD SWAP3 DUP3 PUSH2 0x7D7 JUMPI PUSH1 0x0 DUP6 SSTORE PUSH2 0x81E JUMP JUMPDEST DUP3 PUSH1 0x1F LT PUSH2 0x7F0 JUMPI DUP1 MLOAD PUSH1 0xFF NOT AND DUP4 DUP1 ADD OR DUP6 SSTORE PUSH2 0x81E JUMP JUMPDEST DUP3 DUP1 ADD PUSH1 0x1 ADD DUP6 SSTORE DUP3 ISZERO PUSH2 0x81E JUMPI SWAP2 DUP3 ADD JUMPDEST DUP3 DUP2 GT ISZERO PUSH2 0x81D JUMPI DUP3 MLOAD DUP3 SSTORE SWAP2 PUSH1 0x20 ADD SWAP2 SWAP1 PUSH1 0x1 ADD SWAP1 PUSH2 0x802 JUMP JUMPDEST JUMPDEST POP SWAP1 POP PUSH2 0x82B SWAP2 SWAP1 PUSH2 0x82F JUMP JUMPDEST POP SWAP1 JUMP JUMPDEST JUMPDEST DUP1 DUP3 GT ISZERO PUSH2 0x848 JUMPI PUSH1 0x0 DUP2 PUSH1 0x0 SWAP1 SSTORE POP PUSH1 0x1 ADD PUSH2 0x830 JUMP JUMPDEST POP SWAP1 JUMP JUMPDEST PUSH1 0x0 PUSH2 0x85F PUSH2 0x85A DUP5 PUSH2 0xBC1 JUMP JUMPDEST PUSH2 0xB90 JUMP JUMPDEST SWAP1 POP DUP3 DUP2 MSTORE PUSH1 0x20 DUP2 ADD DUP5 DUP5 DUP5 ADD GT ISZERO PUSH2 0x877 JUMPI PUSH1 0x0 DUP1 REVERT JUMPDEST PUSH2 0x882 DUP5 DUP3 DUP6 PUSH2 0xC49 JUMP JUMPDEST POP SWAP4 SWAP3 POP POP POP JUMP JUMPDEST PUSH1 0x0 DUP3 PUSH1 0x1F DUP4 ADD SLT PUSH2 0x89B JUMPI PUSH1 0x0 DUP1 REVERT JUMPDEST DUP2 CALLDATALOAD PUSH2 0x8AB DUP5 DUP3 PUSH1 0x20 DUP7 ADD PUSH2 0x84C JUMP JUMPDEST SWAP2 POP POP SWAP3 SWAP2 POP POP JUMP JUMPDEST PUSH1 0x0 DUP2 CALLDATALOAD SWAP1 POP PUSH2 0x8C3 DUP2 PUSH2 0xD2C JUMP JUMPDEST SWAP3 SWAP2 POP POP JUMP JUMPDEST PUSH1 0x0 DUP1 PUSH1 0x0 PUSH1 0x60 DUP5 DUP7 SUB SLT ISZERO PUSH2 0x8DE JUMPI PUSH1 0x0 DUP1 REVERT JUMPDEST PUSH1 0x0 DUP5 ADD CALLDATALOAD PUSH8 0xFFFFFFFFFFFFFFFF DUP2 GT ISZERO PUSH2 0x8F8 JUMPI PUSH1 0x0 DUP1 REVERT JUMPDEST PUSH2 0x904 DUP7 DUP3 DUP8 ADD PUSH2 0x88A JUMP JUMPDEST SWAP4 POP POP PUSH1 0x20 DUP5 ADD CALLDATALOAD PUSH8 0xFFFFFFFFFFFFFFFF DUP2 GT ISZERO PUSH2 0x921 JUMPI PUSH1 0x0 DUP1 REVERT JUMPDEST PUSH2 0x92D DUP7 DUP3 DUP8 ADD PUSH2 0x88A JUMP JUMPDEST SWAP3 POP POP PUSH1 0x40 DUP5 ADD CALLDATALOAD PUSH8 0xFFFFFFFFFFFFFFFF DUP2 GT ISZERO PUSH2 0x94A JUMPI PUSH1 0x0 DUP1 REVERT JUMPDEST PUSH2 0x956 DUP7 DUP3 DUP8 ADD PUSH2 0x88A JUMP JUMPDEST SWAP2 POP POP SWAP3 POP SWAP3 POP SWAP3 JUMP JUMPDEST PUSH1 0x0 PUSH1 0x20 DUP3 DUP5 SUB SLT ISZERO PUSH2 0x972 JUMPI PUSH1 0x0 DUP1 REVERT JUMPDEST PUSH1 0x0 PUSH2 0x980 DUP5 DUP3 DUP6 ADD PUSH2 0x8B4 JUMP JUMPDEST SWAP2 POP POP SWAP3 SWAP2 POP POP JUMP JUMPDEST PUSH2 0x992 DUP2 PUSH2 0xC0D JUMP JUMPDEST DUP3 MSTORE POP POP JUMP JUMPDEST PUSH1 0x0 PUSH2 0x9A3 DUP3 PUSH2 0xBF1 JUMP JUMPDEST PUSH2 0x9AD DUP2 DUP6 PUSH2 0xBFC JUMP JUMPDEST SWAP4 POP PUSH2 0x9BD DUP2 DUP6 PUSH1 0x20 DUP7 ADD PUSH2 0xC58 JUMP JUMPDEST PUSH2 0x9C6 DUP2 PUSH2 0xD1B JUMP JUMPDEST DUP5 ADD SWAP2 POP POP SWAP3 SWAP2 POP POP JUMP JUMPDEST PUSH1 0x0 PUSH2 0x9DE PUSH1 0xD DUP4 PUSH2 0xBFC JUMP JUMPDEST SWAP2 POP PUSH32 0x496E76616C696420696E64657800000000000000000000000000000000000000 PUSH1 0x0 DUP4 ADD MSTORE PUSH1 0x20 DUP3 ADD SWAP1 POP SWAP2 SWAP1 POP JUMP JUMPDEST PUSH1 0x0 PUSH2 0xA1E PUSH1 0x15 DUP4 PUSH2 0xBFC JUMP JUMPDEST SWAP2 POP PUSH32 0x53746F72616765206C696D697420726561636865640000000000000000000000 PUSH1 0x0 DUP4 ADD MSTORE PUSH1 0x20 DUP3 ADD SWAP1 POP SWAP2 SWAP1 POP JUMP JUMPDEST PUSH1 0x0 PUSH2 0xA5E PUSH1 0xE DUP4 PUSH2 0xBFC JUMP JUMPDEST SWAP2 POP PUSH32 0x4E6F7420617574686F72697A6564000000000000000000000000000000000000 PUSH1 0x0 DUP4 ADD MSTORE PUSH1 0x20 DUP3 ADD SWAP1 POP SWAP2 SWAP1 POP JUMP JUMPDEST PUSH2 0xA9A DUP2 PUSH2 0xC3F JUMP JUMPDEST DUP3 MSTORE POP POP JUMP JUMPDEST PUSH1 0x0 PUSH1 0x20 DUP3 ADD SWAP1 POP PUSH2 0xAB5 PUSH1 0x0 DUP4 ADD DUP5 PUSH2 0x989 JUMP JUMPDEST SWAP3 SWAP2 POP POP JUMP JUMPDEST PUSH1 0x0 PUSH1 0x20 DUP3 ADD SWAP1 POP DUP2 DUP2 SUB PUSH1 0x0 DUP4 ADD MSTORE PUSH2 0xAD4 DUP2 PUSH2 0x9D1 JUMP JUMPDEST SWAP1 POP SWAP2 SWAP1 POP JUMP JUMPDEST PUSH1 0x0 PUSH1 0x20 DUP3 ADD SWAP1 POP DUP2 DUP2 SUB PUSH1 0x0 DUP4 ADD MSTORE PUSH2 0xAF4 DUP2 PUSH2 0xA11 JUMP JUMPDEST SWAP1 POP SWAP2 SWAP1 POP JUMP JUMPDEST PUSH1 0x0 PUSH1 0x20 DUP3 ADD SWAP1 POP DUP2 DUP2 SUB PUSH1 0x0 DUP4 ADD MSTORE PUSH2 0xB14 DUP2 PUSH2 0xA51 JUMP JUMPDEST SWAP1 POP SWAP2 SWAP1 POP JUMP JUMPDEST PUSH1 0x0 PUSH1 0x20 DUP3 ADD SWAP1 POP PUSH2 0xB30 PUSH1 0x0 DUP4 ADD DUP5 PUSH2 0xA91 JUMP JUMPDEST SWAP3 SWAP2 POP POP JUMP JUMPDEST PUSH1 0x0 PUSH1 0x80 DUP3 ADD SWAP1 POP PUSH2 0xB4B PUSH1 0x0 DUP4 ADD DUP8 PUSH2 0xA91 JUMP JUMPDEST DUP2 DUP2 SUB PUSH1 0x20 DUP4 ADD MSTORE PUSH2 0xB5D DUP2 DUP7 PUSH2 0x998 JUMP JUMPDEST SWAP1 POP DUP2 DUP2 SUB PUSH1 0x40 DUP4 ADD MSTORE PUSH2 0xB71 DUP2 DUP6 PUSH2 0x998 JUMP JUMPDEST SWAP1 POP DUP2 DUP2 SUB PUSH1 0x60 DUP4 ADD MSTORE PUSH2 0xB85 DUP2 DUP5 PUSH2 0x998 JUMP JUMPDEST SWAP1 POP SWAP6 SWAP5 POP POP POP POP POP JUMP JUMPDEST PUSH1 0x0 PUSH1 0x40 MLOAD SWAP1 POP DUP2 DUP2 ADD DUP2 DUP2 LT PUSH8 0xFFFFFFFFFFFFFFFF DUP3 GT OR ISZERO PUSH2 0xBB7 JUMPI PUSH2 0xBB6 PUSH2 0xCEC JUMP JUMPDEST JUMPDEST DUP1 PUSH1 0x40 MSTORE POP SWAP2 SWAP1 POP JUMP JUMPDEST PUSH1 0x0 PUSH8 0xFFFFFFFFFFFFFFFF DUP3 GT ISZERO PUSH2 0xBDC JUMPI PUSH2 0xBDB PUSH2 0xCEC JUMP JUMPDEST JUMPDEST PUSH1 0x1F NOT PUSH1 0x1F DUP4 ADD AND SWAP1 POP PUSH1 0x20 DUP2 ADD SWAP1 POP SWAP2 SWAP1 POP JUMP JUMPDEST PUSH1 0x0 DUP2 MLOAD SWAP1 POP SWAP2 SWAP1 POP JUMP JUMPDEST PUSH1 0x0 DUP3 DUP3 MSTORE PUSH1 0x20 DUP3 ADD SWAP1 POP SWAP3 SWAP2 POP POP JUMP JUMPDEST PUSH1 0x0 PUSH2 0xC18 DUP3 PUSH2 0xC1F JUMP JUMPDEST SWAP1 POP SWAP2 SWAP1 POP JUMP JUMPDEST PUSH1 0x0 PUSH20 0xFFFFFFFFFFFFFFFFFFFFFFFFFFFFFFFFFFFFFFFF DUP3 AND SWAP1 POP SWAP2 SWAP1 POP JUMP JUMPDEST PUSH1 0x0 DUP2 SWAP1 POP SWAP2 SWAP1 POP JUMP JUMPDEST DUP3 DUP2 DUP4 CALLDATACOPY PUSH1 0x0 DUP4 DUP4 ADD MSTORE POP POP POP JUMP JUMPDEST PUSH1 0x0 JUMPDEST DUP4 DUP2 LT ISZERO PUSH2 0xC76 JUMPI DUP1 DUP3 ADD MLOAD DUP2 DUP5 ADD MSTORE PUSH1 0x20 DUP2 ADD SWAP1 POP PUSH2 0xC5B JUMP JUMPDEST DUP4 DUP2 GT ISZERO PUSH2 0xC85 JUMPI PUSH1 0x0 DUP5 DUP5 ADD MSTORE JUMPDEST POP POP POP POP JUMP JUMPDEST PUSH1 0x0 PUSH1 0x2 DUP3 DIV SWAP1 POP PUSH1 0x1 DUP3 AND DUP1 PUSH2 0xCA3 JUMPI PUSH1 0x7F DUP3 AND SWAP2 POP JUMPDEST PUSH1 0x20 DUP3 LT DUP2 EQ ISZERO PUSH2 0xCB7 JUMPI PUSH2 0xCB6 PUSH2 0xCBD JUMP JUMPDEST JUMPDEST POP SWAP2 SWAP1 POP JUMP JUMPDEST PUSH32 0x4E487B7100000000000000000000000000000000000000000000000000000000 PUSH1 0x0 MSTORE PUSH1 0x22 PUSH1 0x4 MSTORE PUSH1 0x24 PUSH1 0x0 REVERT JUMPDEST PUSH32 0x4E487B7100000000000000000000000000000000000000000000000000000000 PUSH1 0x0 MSTORE PUSH1 0x41 PUSH1 0x4 MSTORE PUSH1 0x24 PUSH1 0x0 REVERT JUMPDEST PUSH1 0x0 PUSH1 0x1F NOT PUSH1 0x1F DUP4 ADD AND SWAP1 POP SWAP2 SWAP1 POP JUMP JUMPDEST PUSH2 0xD35 DUP2 PUSH2 0xC3F JUMP JUMPDEST DUP2 EQ PUSH2 0xD40 JUMPI PUSH1 0x0 DUP1 REVERT JUMPDEST POP JUMP INVALID LOG2 PUSH5 0x6970667358 0x22 SLT KECCAK256 0xA7 CHAINID SWAP15 SHL SHL 0xC2 0xAE 0xE5 0xCE DUP7 SWAP11 0xEF PUSH32 0xBA87985747425DC27DBBF93B45C267AEF1FB4564736F6C634300080000330000 "
				},
				"gasEstimates": {
					"creation": {
						"codeDepositCost": "689800",
						"executionCost": "21587",
						"totalCost": "711387"
					},
					"external": {
						"MAX_ENTRIES()": "351",
						"dataRecords(uint256)": "infinite",
						"getData(uint256)": "infinite",
						"getDataCount()": "1145",
						"owner()": "1258",
						"storeData(string,string,string)": "infinite"
					}
				},
				"methodIdentifiers": {
					"MAX_ENTRIES()": "7d4cb964",
					"dataRecords(uint256)": "c8592e0b",
					"getData(uint256)": "0178fe3f",
					"getDataCount()": "7355a424",
					"owner()": "8da5cb5b",
					"storeData(string,string,string)": "d4001ef2"
				}
			},
			"storageLayout": {
				"storage": [
					{
						"astId": 17,
						"contract": "IoTDataStorage.sol:IoTDataStorage",
						"label": "dataRecords",
						"offset": 0,
						"slot": "0",
						"type": "t_array(t_struct(IoTData)10_storage)dyn_storage"
					},
					{
						"astId": 19,
						"contract": "IoTDataStorage.sol:IoTDataStorage",
						"label": "owner",
						"offset": 0,
						"slot": "1",
						"type": "t_address"
					}
				],
				"types": {
					"t_address": {
						"encoding": "inplace",
						"label": "address",
						"numberOfBytes": "20"
					},
					"t_array(t_struct(IoTData)10_storage)dyn_storage": {
						"base": "t_struct(IoTData)10_storage",
						"encoding": "dynamic_array",
						"label": "struct IoTDataStorage.IoTData[]",
						"numberOfBytes": "32"
					},
					"t_string_storage": {
						"encoding": "bytes",
						"label": "string",
						"numberOfBytes": "32"
					},
					"t_struct(IoTData)10_storage": {
						"encoding": "inplace",
						"label": "struct IoTDataStorage.IoTData",
						"members": [
							{
								"astId": 3,
								"contract": "IoTDataStorage.sol:IoTDataStorage",
								"label": "timestamp",
								"offset": 0,
								"slot": "0",
								"type": "t_uint256"
							},
							{
								"astId": 5,
								"contract": "IoTDataStorage.sol:IoTDataStorage",
								"label": "packageId",
								"offset": 0,
								"slot": "1",
								"type": "t_string_storage"
							},
							{
								"astId": 7,
								"contract": "IoTDataStorage.sol:IoTDataStorage",
								"label": "category",
								"offset": 0,
								"slot": "2",
								"type": "t_string_storage"
							},
							{
								"astId": 9,
								"contract": "IoTDataStorage.sol:IoTDataStorage",
								"label": "value",
								"offset": 0,
								"slot": "3",
								"type": "t_string_storage"
							}
						],
						"numberOfBytes": "128"
					},
					"t_uint256": {
						"encoding": "inplace",
						"label": "uint256",
						"numberOfBytes": "32"
					}
				}
			},
			"userdoc": {
				"kind": "user",
				"methods": {},
				"version": 1
			}
		}
	}
}